S00F00006578616D656E312E7372656366
S11300000C942A000C94B8020C9447000C944700FA
S11300100C9447000C9447000C9447000C94470040
S11300200C9447000C9447000C9447000C94470030
S11300300C9447000C9447000C9447000C94470020
S11300400C9447000C9447000C9447000C9427032D
S11300500C94470011241FBECFE5D4E0DEBFCDBF12
S113006010E0A0E6B0E0E4E6F8E002C005900D92EE
S1130070AC39B107D9F720E0ACE9B0E001C01D927A
S1130080A33AB207E1F70E94A6020C9430040C9440
S1130090000088B3806188BB00C088B38F7E88BBB2
S11300A00895CF93DF93D82F662321F088B380641B
S11300B088BB03C088B38F7B88BB88B38F7D88BB24
S11300C087B38F6087BBC8B3C07F8D2F82958F7035
S11300D08C2B88BB0E944900DF70DC2BD8BB0E94AC
S11300E04900CF60C8BBDF91CF910895882321F0E8
S11300F088B3806488BB03C088B38F7B88BB88B314
S1130100806288BB87B3807F87BB88B3806188BBEC
S113011000C096B39295907F88B38F7E88BB00C051
S113012088B3806188BB00C086B38F7028B32F7EEC
S113013028BB892B089580E00E9476008823DCF395
S113014084E090E00197F1F780E00E947600089542
S1130150CF93C82F0E949B0060E08C2F0E94510017
S1130160CF910895611104C080580E94A800089599
S113017080540E94A800089581E00E94A800089578
S1130180CF93C82F0E949B00CA3049F4803410F4E6
S113019080E401C080E080580E94A80004C061E0AF
S11301A08C2F0E945100CF910895CF93DF93FC01CF
S11301B003C00E94C000FE01EF01219680818111DD
S11301C0F8CFDF91CF9108951F93CF93DF93182F2A
S11301D087B38F6087BB87B3806487BB87B3806234
S11301E087BB87B3806187BB80E09DE70197F1F708
S11301F088B3826088BB88B3816088BB0E94490051
S113020080E097E20197F1F70E944900C0E8D0E04E
S1130210CE010197F1F70E944900CE010197F1F751
S113022088B38E7F88BB0E9449002197F1F788E24A
S11302300E94A80088E00E94A8000E94BC0086E0FA
S11302400E94A800812F0E94A800DF91CF911F91E6
S11302500895CF93DF9387E690E00E94D5000CC009
S1130260809165008F5F8093650080916500833382
S113027018F081E080936500809166008111F0CFD1
S113028081E080939D000E94BC0061E080E00E94B8
S1130290B20082E790E00E94D50040E050E013C035
S11302A0EFE1FEE43197F1F700C00000019602C0CF
S11302B080E090E08A31910524F420919C0022236F
S11302C079F34F5F5F4F8091A20090E0880F991FF0
S11302D0880F991F4817590724F480919C0088239C
S11302E039F380919C00882309F462C00E94BC0009
S11302F089E790E00E94D50081E082BB80E090E035
S11303000AC0FFE72AE136E0F15020403040E1F72F
S113031000C000000196843091059CF312BA80E07D
S113032090E00AC04FE7EAE1F6E04150E040F040D7
S1130330E1F700C000000196843091059CF381E050
S113034082BB80E090E00AC02FE73AE146E021500A
S113035030404040E1F700C0000001968430910530
S11303609CF312BA80E090E00AC0EFE7FAE126E0DD
S1130370E150F0402040E1F700C0000001968430D5
S113038091059CF381E082BB80E090E00AC03FE7E6
S11303904AE1E6E031504040E040E1F700C00000AF
S11303A00196843091059CF312BA0E94BC00B5C03A
S11303B081E082BB12BE92E099BF9CE79CBF9BE0A8
S11303C093BF10929D0010929F0010929E00809304
S11303D064001092A1001092A0000E94BC008091C1
S11303E064008111FCCF80919E0090919F00813A1E
S11303F09F400CF079C061E086E00E94B20087E87B
S113040090E00E94D50061E08BE00E94B2008091F0
S11304109E0090919F009093A1008093A0008091F2
S1130420A0009091A100C8EED3E0BE010E94490350
S113043080E3860F0E94C0008091A0009091A100EB
S1130440BE010E9449039093A1008093A00061E043
S11304508CE00E94B2008EE20E94C00061E08DE058
S11304600E94B2008091A0009091A100C4E6D0E067
S1130470BE010E94490380E3860F0E94C000809160
S1130480A0009091A100BE010E9449039093A10095
S11304908093A00061E08EE00E94B2008091A000F1
S11304A09091A100CAE0D0E0BE010E94490380E31C
S11304B0860F0E94C0008091A0009091A100BE010F
S11304C00E9449039093A1008093A00061E08FE013
S11304D00E94B2008091A0009091A100805D0E94D2
S11304E0C00080E090E013C061E083E00E94B200AD
S11304F08DE890E00E94D500F4CF2FE73AE146E082
S1130500215030404040E1F700C00000019688309F
S113051091059CF312BA0E94BC00DF91CF9108951B
S113052081E0809366001092A2008093650010928F
S11305309F0010929E00809364001092A10010927C
S1130540A00010929D0010929C00089581E081BB50
S113055012BA82E085BF80EE8ABF80E48BBF7894B4
S11305608CE00E94E4000E9490020E942901FBCFCB
S11305701F920F920FB60F9211242F933F934F9314
S11305805F936F937F938F939F93AF93BF93EF93F7
S1130590FF9380919D00882331F01092640081E0E4
S11305A080939C0043C080916600882329F12FE743
S11305B088E391E0215080409040E1F700C00000C2
S11305C0109266008091650090E00E94C2030E9430
S11305D0BD0369E070E00E9449038E5F8093A2002E
S11305E0829BFECF2FE788E391E02150804090402A
S11305F0E1F700C000001AC0809164008823B1F0C4
S1130600109264002FE788E391E0215080409040ED
S1130610E1F700C00000829BFECF2FE788E391E062
S1130620215080409040E1F700C00000FF91EF911D
S1130630BF91AF919F918F917F916F915F914F91F6
S11306403F912F910F900FBE0F901F9018951F92FE
S11306500F920FB60F9211242F938F939F93809133
S11306609E0090919F00803A9F4014F01092640085
S113067080919E0090919F00019690939F0080939B
S11306809E009F918F912F910F900FBE0F901F90FE
S1130690189597FB072E16F4009407D077FD09D020
S11306A00E945D0307FC05D03EF4909581959F4F11
S11306B00895709561957F4F0895AA1BBB1B51E166
S11306C007C0AA1FBB1FA617B70710F0A61BB70BBE
S11306D0881F991F5A95A9F780959095BC01CD0163
S11306E008958F929F92AF92BF92CF92DF92EF9232
S11306F0FF92CF93DF93EC01688179818A819B819A
S1130700611571058105910521F464E279ED8BE5AC
S113071097E02DE133EF41E050E00E94CD03490121
S11307205A019B01AC01A7EAB1E40E94EC036B01FE
S11307307C01ACEEB4EFA50194010E94FA03DC0144
S1130740CB018C0D9D1DAE1DBF1DB7FF03C00197CE
S1130750A109B04888839983AA83BB839F77DF91DB
S1130760CF91FF90EF90DF90CF90BF90AF909F908C
S11307708F9008950E947103089580E690E00E948E
S113078071030895A0E0B0E080936000909361004D
S1130790A0936200B09363000895052E97FB1EF4A6
S11307A000940E94E40357FD07D00E94FF0307FC56
S11307B003D04EF40C94E403509540953095219564
S11307C03F4F4F4F5F4F0895909580957095619579
S11307D07F4F8F4F9F4F08950E942104A59F900D36
S11307E0B49F900DA49F800D911D11240895B7FF0F
S11307F00C94EC030E94EC03821B930B0895A1E27A
S11308001A2EAA1BBB1BFD010DC0AA1FBB1FEE1F86
S1130810FF1FA217B307E407F50720F0A21BB30BD1
S1130820E40BF50B661F771F881F991F1A9469F74D
S113083060957095809590959B01AC01BD01CF01A9
S11308400895A29FB001B39FC001A39F700D811DA5
S11308501124911DB29F700D811D1124911D0895C5
S1070860F894FFCF36
S113086401000000010101496E69636961722E2E61
S11308742E004C6973746F3F00546F646176696130
S1130884206E6F2121210054706F3A200045786353
S10F08946564697374652054706F000083
S9030000FC
