S01A0000707261637469636131395F6573636C61766F2E737265630D
S11300000C942A000C9434000C9434000C943400A6
S11300100C9434000C9434000C9434000C9434008C
S11300200C9434000C9434000C9434000C9434007C
S11300300C9434000C9434000C9434000C9434006C
S11300400C9434000C9434000C9434000C9434005C
S11300500C94340011241FBECFE5D4E0DEBFCDBF25
S11300600E9458000C9488000C94000080E487BB24
S11300708DB9089597B18F70982B97B986B1806424
S113008086B9349BFECF8AE18A95F1F700C084B12A
S113009095B108958FB9779BFECF0895779BFECFD6
S11300A08FB108951ABA87E886B980E487B90895AC
S11300B00E9436000E9452008FEF84BB15BA15BA15
S11300C00E944E0090E02FEF30E742E02150304094
S11300D04040E1F700C000008130910511F487E051
S11300E090E085BB0E943A0099230CF40396959501
S11300F087959595879585BB0E944A008FEF90E779
S113010022E0815090402040E1F700C00000D7CFAA
S1070110F894FFCF8D
S9030000FC
