S0120000707261637469636131342E7372656366
S11300000C942A000C943C000C943C000C943C008E
S11300100C943C000C943C000C943C000C943C006C
S11300200C943C000C943C000C943C000C943C005C
S11300300C943C000C943C000C9454010C943C0033
S11300400C943C000C943C000C943C000C943C003C
S11300500C943C0011241FBECFE5D4E0DEBFCDBF1D
S113006020E0A0E6B0E001C01D92A236B207E1F79D
S11300700E9435010C94E0010C94000085B3806467
S113008085BB00C085B38F7B85BB0895CF93DF9379
S1130090D82F662321F085B3806185BB03C085B367
S11300A08F7E85BB85B38F7D85BB84B38F6084BB16
S11300B0C5B3C07F8D2F82958F708C2B85BB0E941A
S11300C03E00DF70DC2BD5BB0E943E00CF60C5BB79
S11300D0DF91CF910895882321F085B3806185BB9A
S11300E003C085B38F7E85BB85B3806285BB84B333
S11300F0807F84BB85B3806485BB00C093B3929535
S1130100907F85B38F7B85BB00C085B3806485BB3E
S113011000C083B38F7025B32F7B25BB892B089533
S113012080E00E946B008823DCF300C080E00E9422
S11301306B000895CF93C82F0E94900060E08C2F2D
S11301400E944600CF910895611104C080580E9416
S11301509A00089580540E949A00089581E00E94B4
S11301609A000895CF93C82F0E949000CA3049F492
S1130170803410F480E401C080E080580E949A002A
S113018004C061E08C2F0E944600CF9108951F9314
S1130190CF93DF93182F84B38F6784BB80EA9FE0EB
S11301A00197F1F785B3826085BB85B3816085BB18
S11301B00E943E0080EE94E00197F1F70E943E0019
S11301C0C0E1D0E0CE010197F1F70E943E00CE01DC
S11301D00197F1F785B38E7F85BB0E943E0021977E
S11301E0F1F788E20E949A0088E00E949A000E9437
S11301F0AE0086E00E949A00812F0E949A00DF914F
S1130200CF911F9108952AB128612AB920B5266893
S113021020BDDC01CB01880F991FAA1FBB1F880FCB
S1130220991FAA1FBB1F9C01AD01220F331F441F3E
S1130230551F220F331F441F551F60E472E48FE0E3
S113024090E00E94BE018FEF820F89B9DA01C901E3
S11302500197A109B109892F9A2FAB2FBB2780BD24
S113026008955D9BFECF8CB908958CE00E94C70071
S11302708FEF81BB12BA17BA18BA60EC72E180E052
S113028090E00E940301789480E487B910BE8BED5E
S113029086B987E893E10197F1F700C000008091E7
S11302A061000E943101F5CF1F920F920FB60F9299
S11302B011242F933F934F935F936F937F938F9367
S11302C09F93AF93BF93CF93EF93FF9324B185B1E3
S11302D090E0982F8827822B8093600096958795CD
S11302E0969587958093610060E080E00E94A40069
S11302F080916100C9E28C9F812D112482958F70B9
S1130300805D0E94B200809161008C9FC12D1124F8
S1130310C295CF7094E6C99F80191124CDEC8C9FAF
S1130320812D1124869586958695805D0E94B20064
S1130330809161008C9FC12D1124C695C695C695E8
S1130340CC0F9C2F990F990FC90F8C1B805D0E94B5
S1130350B20086B1806486B9FF91EF91CF91BF91CD
S1130360AF919F918F917F916F915F914F913F9149
S11303702F910F900FBE0F901F901895A1E21A2E87
S1130380AA1BBB1BFD010DC0AA1FBB1FEE1FFF1F35
S1130390A217B307E407F50720F0A21BB30BE40B85
S11303A0F50B661F771F881F991F1A9469F76095CC
S11303B07095809590959B01AC01BD01CF01089586
S10703C0F894FFCFDB
S9030000FC
