:100000000C942A000C9447000C9447000C94470071
:100010000C9447000C9447000C9447000C94470044
:100020000C9447000C9447000C9447000C94470034
:100030000C9447000C9447000C9447000C94470024
:100040000C9447000C9447000C9447000C94470014
:100050000C94470011241FBECFE5D4E0DEBFCDBF16
:1000600010E0A0E6B0E0E0EDF3E002C005900D92F4
:10007000A637B107D9F720E0A6E7B0E001C01D928E
:10008000A737B207E1F70E948A010C94E6010C94AD
:10009000000085B3806485BB00C085B38F7B85BBC2
:1000A0000895CF93DF93D82F662321F085B3806125
:1000B00085BB03C085B38F7E85BB85B38F7D85BB34
:1000C00084B38F6084BBC5B3C07F8D2F82958F7042
:1000D0008C2B85BB0E944900DF70DC2BD5BB0E94B6
:1000E0004900CF60C5BBDF91CF910895882321F0EF
:1000F00085B3806185BB03C085B38F7E85BB85B327
:10010000806285BB84B3807F84BB85B3806485BBFC
:1001100000C093B39295907F85B38F7B85BB00C061
:1001200085B3806485BB00C083B38F7025B32F7BFC
:1001300025BB892B089580E00E9476008823DCF39C
:1001400000C080E00E9476000895CF93C82F0E94DF
:100150009B0060E08C2F0E945100CF91089581E0B8
:100160000E94A5000895CF93C82F0E949B00CA301B
:1001700049F4803410F480E401C080E080580E948B
:10018000A50004C061E08C2F0E945100CF9108951A
:10019000CF93DF93FC0103C00E94B300FE01EF0187
:1001A000219680818111F8CFDF91CF9108951F931F
:1001B000CF93DF93182F84B38F6784BB80EA9FE0CF
:1001C0000197F1F785B3826085BB85B3816085BBFC
:1001D0000E94490080EE94E00197F1F70E944900E7
:1001E000C0E1D0E0CE010197F1F70E944900CE01B5
:1001F0000197F1F785B38E7F85BB0E944900219757
:10020000F1F788E20E94A50088E00E94A5000E9404
:10021000AF0086E00E94A500812F0E94A500DF911B
:10022000CF911F91089540E058C0242F30E067E03F
:1002300070E0621B730B81E090E002C0880F991F91
:100240006A95E2F7809582BB809910C0F901EE0FA4
:10025000FF1FEE0FFF1FE05AFF4F8381803330F006
:100260008A3320F491E0909376000895819910C02C
:10027000F901EE0FFF1FEE0FFF1FE05AFF4F8281C3
:10028000803330F08A3320F492E090937600089522
:10029000829910C0F901EE0FFF1FEE0FFF1FE05A09
:1002A000FF4F8181803330F08A3320F494E09093C3
:1002B00076000895839910C0220F331F220F331F39
:1002C000F901E05AFF4F8081803330F08A3320F407
:1002D00098E09093760008954F5F443008F4A5CFDE
:1002E000A2CF83ED90E30197F1F700C0000080B347
:1002F00090E09C01209530958091760090E08223DB
:100300009323892BA1F783ED90E30197F1F700C0C8
:10031000000008958CE00E94D70080EF81BB0E940E
:10032000AF0080E790E00E94C80080E090E00E946B
:10033000D101182F81E090E00E94D101D82F82E0F6
:1003400090E00E94D101C82F83E090E00E94D1018B
:10035000082F0E94AF00812F0E94B3008D2F0E94B2
:10036000B3008C2F0E94B300802F0E94B3000E9424
:100370001301082F0E947101602F80E090E00E941D
:10038000D901612F81E090E00E94D9016D2F82E0B8
:1003900090E00E94D9016C2F83E090E00E94D90187
:1003A000C4CFE199FECF9FBB8EBBE09A99278DB356
:1003B0000895262FE199FECF9FBB8EBB2DBB0FB6B4
:1003C000F894E29AE19A0FBE01960895F894FFCF4F
:1003D000313233413435364237383943453046447B
:0603E00030303030000057
:00000001FF
