S0120000707261637469636131312E7372656369
S11300000C942A000C944A020C9447000C94470068
S11300100C9447000C9447000C9447000C94470040
S11300200C9447000C9447000C9447000C94470030
S11300300C9447000C9447000C9447000C94470020
S11300400C9447000C9447000C9447000C942D0129
S11300500C94470011241FBECFE5D4E0DEBFCDBF12
S113006010E0A0E6B0E0E6E9FCE002C005900D92E5
S1130070AE37B107D9F720E0AEE7B0E001C01D927A
S1130080A039B207E1F70E9463030C9449060C946B
S1130090000085B3806485BB00C085B38F7B85BBBE
S11300A00895CF93DF93D82F662321F085B3806121
S11300B085BB03C085B38F7E85BB85B38F7D85BB30
S11300C084B38F6084BBC5B3C07F8D2F82958F703E
S11300D08C2B85BB0E944900DF70DC2BD5BB0E94B2
S11300E04900CF60C5BBDF91CF910895882321F0EB
S11300F085B3806185BB03C085B38F7E85BB85B323
S1130100806285BB84B3807F84BB85B3806485BBF8
S113011000C093B39295907F85B38F7B85BB00C05D
S113012085B3806485BB00C083B38F7025B32F7BF8
S113013025BB892B089580E00E9476008823DCF398
S113014082E090E00197F1F780E00E947600089544
S1130150CF93C82F0E949B0060E08C2F0E94510017
S1130160CF910895611104C080580E94A800089599
S113017080540E94A800089581E00E94A800089578
S1130180CF93C82F0E949B00CA3049F4803410F4E6
S113019080E401C080E080580E94A80004C061E0AF
S11301A08C2F0E945100CF910895CF93DF93FC01CF
S11301B003C00E94C000FE01EF01219680818111DD
S11301C0F8CFDF91CF9108951F93CF93DF93182F2A
S11301D084B38F6784BB80E89EE30197F1F785B30E
S11301E0826085BB85B3816085BB0E94490080E83D
S11301F093E10197F1F70E944900C0E4D0E0CE01F9
S11302000197F1F70E944900CE010197F1F785B3F8
S11302108E7F85BB0E9449002197F1F788E20E94F6
S1130220A80088E00E94A8000E94BC0086E00E940A
S1130230A800812F0E94A800DF91CF911F910895FB
S113024097B1987F8770892B87B986B1806486B906
S11302503699FECF84B195B108951F920F920FB6CF
S11302600F9211242F933F934F935F936F937F9338
S11302708F939F93AF93BF93CF93DF93EF93FF93AA
S11302808091600090916100019790936100809348
S113029060008091600090916100892B09F0E7C0B3
S11302A08FEF87BB88BB8091860090918700019671
S11302B0909387008093860080917E0090917F00C8
S11302C0019690937F0080937E00809186009091A8
S11302D08700CC9701F5809182009091830001966C
S11302E0909383008093820010928700109286007E
S11302F08091820090918300CC9769F4809184006E
S113030090918500019690938500809384001092CB
S1130310830010928200109289001092880010923B
S11303208B0010928A0060E080E00E94B20080910D
S1130330840090918500CAE0D0E0BE010E942106AD
S113034080E3860F0E94C00080918800909189000C
S11303500196909389008093880080918400909105
S11303608500BE010E942106805D0E94C00080912C
S11303708800909189000196909389008093880069
S11303808AE30E94C00080918800909189000196C0
S113039090938900809388008091820090918300DB
S11303A0BE010E94210680E3860F0E94C000809156
S11303B08800909189000196909389008093880029
S11303C08091820090918300BE010E942106805D8D
S11303D00E94C000809188009091890001969093BA
S11303E08900809388008AE30E94C000809188007D
S11303F09091890001969093890080938800809160
S1130400860090918700BE010E94210680E3860F3A
S11304100E94C00080918800909189000196909379
S11304208900809388008091860090918700BE01A6
S11304300E942106805D0E94C000809180009091FE
S11304408100059620917E0030917F0082179307EA
S113045041F461E080E00E94B20082E690E00E94F4
S1130460D5008AE090E09093610080936000FF9152
S1130470EF91DF91CF91BF91AF919F918F917F9138
S11304806F915F914F913F912F910F900FBE0F90FD
S11304901F9018951F920F920FB60F9211248F92EE
S11304A09F92AF92BF92CF92DF92EF92FF922F93DF
S11304B03F934F935F936F937F938F939F93AF93E8
S11304C0BF93CF93EF93FF9380E00E942001BC0180
S11304D0990F880B990B0E94280560938C007093E8
S11304E08D0080938E0090938F0080917E00909178
S11304F07F00909381008093800061E080E00E94FF
S1130500B20082E790E00E94D50060918C00709167
S11305108D0080918E0090918F0020E030E04CE8B7
S113052052E40E94B40520E030EC4FE754E40E940A
S11305307E0460938C0070938D0080938E00909362
S11305408F0060918C0070918D0080918E0090914D
S11305508F0020E030E040EA51E40E9411046093EF
S11305608C0070938D0080938E0090938F00609127
S11305708C0070918D0080918E0090918F000E946C
S1130580F0046B017C01CB0199230CF044C08DE293
S11305900E94C000D194C194D108C6016AE070E001
S11305A00E942106C82F80E3860F0E94C00080E3CA
S11305B08C0F0E94C0008EE20E94C00080908C00CC
S11305C090908D00A0908E00B0908F00B601DD0C4D
S11305D0880B990B0E942805A50194010E9412041E
S11305E020E030E040E251EC0E94B4050E94F004A7
S11305F080E3860F0E94C00089E790E00E94D50046
S1130600609188007091890080918A0090918B009C
S11306100E94B2003EC06AE070E00E942106C82F2A
S113062080E3860F0E94C00080E38C0F0E94C0000C
S11306308EE20E94C00080908C0090908D00A0906B
S11306408E00B0908F00B601DD0C880B990B0E94D0
S113065028059B01AC01C501B4010E94110420E0EE
S113066030E040E251E40E94B4050E94F00480E3CB
S1130670860F0E94C00089E790E00E94D500609137
S113068088007091890080918A0090918B000E946B
S1130690B200FF91EF91CF91BF91AF919F918F9154
S11306A07F916F915F914F913F912F91FF90EF90C8
S11306B0DF90CF90BF90AF909F908F900F900FBE20
S11306C00F901F90189512BED2E0D9BF81E68CBF5F
S11306D08DE083BF81B38B7F81BB1ABA83E886B96F
S11306E0C0E4C7B98CE00E94E4008FEF82BB1ABA61
S11306F08BBBD5BF80EE8ABFCBBF789410928900A4
S11307001092880010928B0010928A0060E080E0C2
S11307100E94B2008091840090918500CAE0D0E0EC
S1130720BE010E94210680E3860F0E94C0008091D2
S113073088009091890001969093890080938800A5
S11307408091840090918500BE010E942106805D05
S11307500E94C00080918800909189000196909336
S11307608900809388008AE30E94C00080918800F9
S113077090918900019690938900809388008091DC
S1130780820090918300BE010E94210680E3860FBF
S11307900E94C000809188009091890001969093F6
S11307A08900809388008091820090918300BE012B
S11307B00E942106805D0E94C00080918800909173
S11307C08900019690938900809388008AE30E94AF
S11307D0C0008091880090918900019690938900CF
S11307E0809388008091860090918700BE010E94CA
S11307F0210680E3860F0E94C000809188009091BA
S113080089000196909389008093880080918600E6
S113081090918700BE010E942106805D0E94C00065
S1130820FFCF5058BB27AA270E9429040C947A05AD
S11308300E946C0538F00E94730520F039F49F3F44
S113084019F426F40C9469050EF4E095E7FB0C9476
S11308506305E92F0E948B0558F3BA1762077307E3
S11308608407950720F079F4A6F50C94AD050EF4F1
S1130870E0950B2EBA2FA02D0B01B90190010C01AC
S1130880CA01A0011124FF27591B99F0593F50F4C4
S1130890503E68F11A16F040A22F232F342F44271C
S11308A0585FF3CF469537952795A795F040539514
S11308B0C9F77EF41F16BA0B620B730B840BBAF0E4
S11308C09150A1F0FF0FBB1F661F771F881FC2F74F
S11308D00EC0BA0F621F731F841F48F48795779563
S11308E06795B795F7959E3F08F0B0CF9395880F1D
S11308F008F09927EE0F9795879508950E94920422
S11309000C947A050E94730558F00E946C0540F01F
S113091029F45F3F29F00C94630551110C94AE0542
S11309200C9469050E948B0568F39923B1F3552350
S113093091F3951B550BBB27AA27621773078407EE
S113094038F09F5F5F4F220F331F441FAA1FA9F384
S113095035D00E2E3AF0E0E832D091505040E69572
S1130960001CCAF72BD0FE2F29D0660F771F881FD3
S1130970BB1F261737074807AB07B0E809F0BB0BC6
S1130980802DBF01FF2793585F4F3AF09E3F5105DA
S113099078F00C9463050C94AE055F3FE4F3983E45
S11309A0D4F3869577956795B795F7959F5FC9F7C3
S11309B0880F911D9695879597F90895E1E0660F44
S11309C0771F881FBB1F621773078407BA0720F0BD
S11309D0621B730B840BBA0BEE1F88F7E095089526
S11309E00E94F7046894B1110C94AE0508950E9416
S11309F0930588F09F5798F0B92F9927B751B0F015
S1130A00E1F0660F771F881F991F1AF0BA95C9F78E
S1130A1014C0B13091F00E94AD05B1E008950C947A
S1130A20AD05672F782F8827B85F39F0B93FCCF32D
S1130A30869577956795B395D9F73EF4909580950B
S1130A40709561957F4F8F4F9F4F0895E89409C02B
S1130A5097FB3EF490958095709561957F4F8F4FED
S1130A609F4F9923A9F0F92F96E9BB279395F69503
S1130A70879577956795B795F111F8CFFAF4BB0F81
S1130A8011F460FF1BC06F5F7F4F8F4F9F4F16C0E5
S1130A90882311F096E911C0772321F09EE8872F6F
S1130AA0762F05C0662371F096E8862F70E060E02B
S1130AB02AF09A95660F771F881FDAF7880F9695A4
S1130AC0879597F9089597F99F6780E870E060E04B
S1130AD008959FEF80EC089500240A9416161706D3
S1130AE018060906089500240A941216130614061B
S1130AF005060895092E0394000C11F4882352F07E
S1130B00BB0F40F4BF2B11F460FF04C06F5F7F4F35
S1130B108F4F9F4F089557FD9058440F551F59F01C
S1130B205F3F71F04795880F97FB991F61F09F3FD6
S1130B3079F087950895121613061406551FF2CFFF
S1130B404695F1DF08C0161617061806991FF1CF4F
S1130B5086957105610508940895E894BB27662776
S1130B607727CB0197F908950E94C7050C947A055D
S1130B700E946C0538F00E94730520F0952311F053
S1130B800C9463050C94690511240C94AE050E9421
S1130B908B0570F3959FC1F3950F50E0551F629F2D
S1130BA0F001729FBB27F00DB11D639FAA27F00DC2
S1130BB0B11DAA1F649F6627B00DA11D661F829FE9
S1130BC02227B00DA11D621F739FB00DA11D621FCE
S1130BD0839FA00D611D221F749F3327A00D611DEB
S1130BE0231F849F600D211D822F762F6A2F1124CD
S1130BF09F5750409AF0F1F088234AF0EE0FFF1F00
S1130C00BB1F661F771F881F91505040A9F79E3F56
S1130C10510580F00C9463050C94AE055F3FE4F33A
S1130C20983ED4F3869577956795B795F795E795AC
S1130C309F5FC1F7FE2B880F911D9695879597F9B5
S1130C40089597FB072E16F4009407D077FD09D07A
S1130C500E94350607FC05D03EF4909581959F4F80
S1130C600895709561957F4F0895AA1BBB1B51E1B0
S1130C7007C0AA1FBB1FA617B70710F0A61BB70B08
S1130C80881F991F5A95A9F780959095BC01CD01AD
S1090C900895F894FFCF63
S1130C960A00202020202020202020202020202080
S1110CA6200054656D702E20002043200000B5
S9030000FC
