S0120000507261637469636120372E7372656394
S11300000C942A000C9434000C9434000C943400A6
S11300100C9434000C9434000C9434000C9434008C
S11300200C9434000C9434000C9434000C9434007C
S11300300C9434000C9434000C9434000C9434006C
S11300400C9434000C9434000C9434000C9434005C
S11300500C94340011241FBECFE5D4E0DEBFCDBF25
S11300600E9445000C94AB0B0C940000FC018281AF
S11300709381009719F419BC18BC089524E630E064
S113008039BD28BD97BD86BD0895CF93DF93CDB705
S1130090DEB7C85CD1400FB6F894DEBF0FBECDBF4B
S11300A081B3806181BB8FB580628FBD8EB5826163
S11300B08EBD0DE110E0CB53DE4F19830883C55C80
S11300C0D1400F2EF7E46F2EF5E07F2EF02DC953AB
S11300D0DE4F79826882C75CD140CE018B539E4F3C
S11300E00E9436002FE78DE094E02150804090403C
S11300F0E1F700C00000CF53DE4F19830883C15CD1
S1130100D1400F2EF4EFCF2EF3E0DF2EF02DCD53A0
S1130110DE4FD982C882C35CD140CE018F539E4F3B
S11301200E9436002FEF8AE198E0215080409040F1
S1130130E1F700C00000C354DE4F19830883CD5B90
S1130140D1400F2EF6E8EF2EF3E0FF2EF02DC15430
S1130150DE4FF982E882CF5BD140CE0183549E4FBB
S11301600E9436002FEF8AE198E0215080409040B1
S1130170E1F700C00000C754DE4F19830883C95B50
S1130180D1400F2EF4EAAF2EF2E0BF2EF02DC5546D
S1130190DE4FB982A882CB5BD140CE0187549E4FFB
S11301A00E9436002FEF8AE198E021508040904071
S11301B0E1F700C00000CB54DE4F19830883C55B10
S11301C0D1400F2EFAEF2F2E33243394F02DC9543F
S11301D0DE4F39822882C75BD140CE018B549E4FBB
S11301E00E9436002FE78DE094E02150804090403B
S11301F0E1F700C00000CF54DE4F19830883C15BD0
S1130200D1400F2EF3EC8F2E99249394F02DCD54DE
S1130210DE4F99828882C35BD140CE018F549E4FBA
S11302200E9436002FEF8AE198E0215080409040F0
S1130230E1F700C00000C355DE4F19830883CD5A8F
S1130240D140C155DE4F79826882CF5AD140CE0168
S113025083559E4F0E9436002FE78DE094E0215095
S113026080409040E1F700C00000C755DE4F19837D
S11302700883C95AD140C555DE4FD982C882CB5AAA
S1130280D140CE0187559E4F0E9436002FE78DE066
S113029094E0215080409040E1F700C00000CB552D
S11302A0DE4F19830883C55AD140C955DE4FF98200
S11302B0E882C75AD140CE018B559E4F0E9436002A
S11302C02FE78DE094E0215080409040E1F700C09A
S11302D00000CF55DE4F19830883C15AD140CD5554
S11302E0DE4FB982A882C35AD140CE018F559E4FAA
S11302F00E9436002FEF8AE198E021508040904020
S1130300E1F700C00000C356DE4F19830883CD59BE
S1130310D140C156DE4F39822882CF59D140CE0117
S113032083569E4F0E9436002FEF8AE198E02150B9
S113033080409040E1F700C00000C756DE4F1983AB
S11303400883C959D140C556DE4F99828882CB595A
S1130350D140CE0187569E4F0E9436002FEF8AE18E
S113036098E0215080409040E1F700C000002FEF5A
S11303708AE198E0215080409040E1F700C00000FD
S1130380CB56DE4F19830883C559D140C956DE4F79
S1130390D982C882C759D140CE018B569E4F0E9444
S11303A036002FEF8AE198E0215080409040E1F739
S11303B000C00000CF56DE4F19830883C159D140D5
S11303C0CD56DE4FF982E882C359D140CE018F5613
S11303D09E4F0E9436002FE78DE094E0215080402C
S11303E09040E1F700C00000C357DE4F1983088333
S11303F0CD58D140C157DE4FB982A882CF58D140E1
S1130400CE0183579E4F0E9436002FE78DE094E083
S1130410215080409040E1F700C00000C757DE4FF4
S113042019830883C958D140C557DE4F39822882C1
S1130430CB58D140CE0187579E4F0E9436002FE7FC
S11304408DE094E0215080409040E1F700C000002E
S1130450CB57DE4F19830883C558D140C957DE4FA7
S113046099828882C758D140CE018B579E4F0E94F3
S113047036002FEF8AE198E0215080409040E1F768
S113048000C00000CF57DE4F19830883C158D14004
S1130490CD57DE4FF982E882C358D140CE018F5741
S11304A09E4F0E9436002FE78DE094E0215080405B
S11304B09040E1F700C00000C358DE4F1983088361
S11304C0CD57D140C158DE4FF982E882CF57D14091
S11304D0CE0183589E4F0E9436002FE78DE094E0B2
S11304E0215080409040E1F700C00000C758DE4F23
S11304F019821882C957D140C558DE4F1982188213
S1130500CB57D140CE0187589E4F0E9436002FEF23
S11305108AE198E0215080409040E1F700C000005B
S11305200F2EFBE1EF2EF12CF02DCB58DE4FF9828C
S1130530E882C557D1400F2EF8E16F2EF2E07F2EEE
S1130540F02DC958DE4F79826882C757D140CE0159
S11305508B589E4F0E9436002FE78DE094E0215087
S113056080409040E1F700C00000CF58DE4F19836F
S11305700883C157D1400F2EFAE5CF2EF2E0DF2ECB
S1130580F02DCD58DE4FD982C882C357D140CE0159
S11305908F589E4F0E9436002FE78DE094E0215043
S11305A080409040E1F700C00000C359DE4F19833A
S11305B00883CD56D140C159DE4FB982A882CF56A7
S11305C0D140CE0183599E4F0E9436002FE78DE023
S11305D094E0215080409040E1F700C00000C759EA
S11305E0DE4F19830883C956D140C559DE4FD982DD
S11305F0C882CB56D140CE0187599E4F0E94360007
S11306002FE78DE094E0215080409040E1F700C056
S11306100000CB59DE4F19821882C556D140C95902
S1130620DE4F19821882C756D140CE018B599E4F96
S11306300E9436002FE78DE094E0215080409040E6
S1130640E1F700C00000CF59DE4F19830883C1567B
S1130650D140CD59DE4F99828882C356D140CE0114
S11306608F599E4F0E9436002FE78DE094E0215071
S113067080409040E1F700C00000C35ADE4F198269
S11306801882CD55D140C15ADE4F19821882CF55F8
S1130690D140CE01835A9E4F0E9436002FE78DE051
S11306A094E0215080409040E1F700C00000C75A18
S11306B0DE4F19830883C955D140C55ADE4FD9820C
S11306C0C882CB55D140CE01875A9E4F0E94360036
S11306D02FEF85E390E1215080409040E1F700C086
S11306E00000CB5ADE4F19830883C555D140C95A3F
S11306F0DE4FD982C882C755D140CE018B5A9E4F56
S11307000E9436002FE78DE094E021508040904015
S1130710E1F700C00000CF5ADE4F19830883C155AA
S1130720D140CD5ADE4FB982A882C355D140CE0103
S11307308F5A9E4F0E9436002FE78DE094E021509F
S113074080409040E1F700C00000C35BDE4FF982B7
S1130750E882CD54D1400F2EFCEC4F2EF2E05F2EF8
S1130760F02DC15BDE4F59824882CF54D140CE0177
S1130770835B9E4F0E9436002FE78DE094E021506A
S113078080409040E1F700C00000C75BDE4FF98273
S1130790E882C954D14084E293E0C55BDE4F99837B
S11307A08883CB54D140CE01875B9E4F0E94360094
S11307B09FE72DE084E0915020408040E1F700C0A5
S11307C00000CB5BDE4FF982E882C554D14083E55B
S11307D093E0C95BDE4F99838883C754D140CE012F
S11307E08B5B9E4F0E9436009FEF25E380E1915082
S11307F020408040E1F700C00000CF5BDE4F19834A
S11308000883C154D140CD5BDE4FD982C882C35422
S1130810D140CE018F5B9E4F0E9436009FE72DE0B2
S113082084E0915020408040E1F700C00000C35CA8
S1130830DE4F19830883CD53D140C15CDE4FB982AA
S1130840A882CF53D140CE01835C9E4F0E943600D4
S11308509FE72DE084E0915020408040E1F700C004
S11308600000C75CDE4FF982E882C953D140C55C01
S1130870DE4F59824882CB53D140CE01875C9E4FD4
S11308800E9436009FE72DE084E091502040804094
S1130890E1F700C00000CB5CDE4FF982E882C5536B
S11308A0D14084E293E0C95CDE4F99838883C753C7
S11308B0D140CE018B5C9E4F0E9436009FEF25E312
S11308C080E1915020408040E1F700C00000CF5CFF
S11308D0DE4FF982E882C153D14084E293E0CD5CDB
S11308E0DE4F99838883C353D140CE018F5C9E4FE2
S11308F00E9436009FE72DE084E091502040804024
S1130900E1F700C00000C35DDE4FF982E882CD52FA
S1130910D140C15DDE4F59824882CF52D140CE01D1
S1130920835D9E4F0E9436009FE72DE084E0915046
S113093020408040E1F700C00000C75DDE4F19830E
S11309400883C952D140C55DDE4FB982A882CB521B
S1130950D140CE01875D9E4F0E9436009FE72DE077
S113096084E0915020408040E1F700C00000CB5D5E
S1130970DE4F19830883C552D140C95DDE4FD98249
S1130980C882C752D140CE018B5D9E4F0E94360073
S11309909FE72DE084E0915020408040E1F700C0C3
S11309A00000CF5DDE4FF982E882C152D140CD5DB7
S11309B0DE4F79826882C352D140CE018F5D9E4F53
S11309C00E9436009FE72DE084E091502040804053
S11309D0E1F700C00000C35EDE4F19830883CD51E8
S11309E0D140C15EDE4FD982C882CF51D140CE0101
S11309F0835E9E4F0E9436009FE72DE084E0915075
S1130A0020408040E1F700C00000C75EDE4F19833C
S1130A100883C951D140C55EDE4FB982A882CB514B
S1130A20D140CE01875E9E4F0E9436009FE72DE0A5
S1130A3084E0915020408040E1F700C00000CB5E8C
S1130A40DE4F19830883C551D140C95EDE4FD98278
S1130A50C882C751D140CE018B5E9E4F0E943600A2
S1130A609FE72DE084E0915020408040E1F700C0F2
S1130A700000CF5EDE4F19821882C151D140CD5E95
S1130A80DE4F19821882C351D140CE018F5E9E4F32
S1130A900E9436009FE72DE084E091502040804082
S1130AA0E1F700C00000C35FDE4F19830883CD5017
S1130AB0D140C15FDE4F99828882CF50D140CE01B0
S1130AC0835F9E4F0E9436009FE72DE084E09150A3
S1130AD020408040E1F700C00000C75FDE4F19826C
S1130AE01882C950D140C55FDE4F19821882CB509D
S1130AF0D140CE01875F9E4F0E9436009FE72DE0D4
S1130B0084E0915020408040E1F700C00000CB5FBA
S1130B10DE4F19830883C550D140C95FDE4FD982A7
S1130B20C882C750D140CE018B5F9E4F0E943600D1
S1130B309FEF25E380E1915020408040E1F700C021
S1130B400000CF5FDE4F19830883C150D140CD5FD1
S1130B50DE4FD982C882C350D140CE018F5F9E4FF1
S1130B600E9436009FE72DE084E0915020408040B1
S1130B70E1F700C00000C350DF4F19830883CD5F45
S1130B80D040C150DF4FB982A882CF5FD040CE01A0
S1130B9083509F4F0E9436009FE72DE084E09150E0
S1130BA020408040E1F700C00000C750DF4FF982C9
S1130BB0E882C95FD040C550DF4F59824882CB5F7D
S1130BC0D040CE0187509F4F0E9436009FE72DE012
S1130BD084E0915020408040E1F700C00000CB50F9
S1130BE0DF4F19830883C55FD040C950DF4FB982F6
S1130BF0A882C75FD040CE018B509F4F0E94360021
S1130C009FE72DE084E0915020408040E1F700C050
S1130C100000CF50DF4FF982E882C15FD04084E208
S1130C2093E0CD50DF4F99838883C35FD040CE01DA
S1130C308F509F4F0E9436009FE72DE084E0915033
S1130C4020408040E1F700C00000C351DF4FF9822B
S1130C50E882CD5ED040C151DF4F59824882CF5ED9
S1130C60D040CE0183519F4F0E9436009FE72DE074
S1130C7084E0915020408040E1F700C00000C7515B
S1130C80DF4F19830883C95ED040C551DF4FB98255
S1130C90A882CB5ED040CE0187519F4F0E94360080
S1130CA09FE72DE084E0915020408040E1F700C0B0
S1130CB00000CB51DF4F19830883C55ED040C95172
S1130CC0DF4FD982C882C75ED040CE018B519F4F7F
S1130CD00E9436009FE72DE084E091502040804040
S1130CE0E1F700C00000CF51DF4F19821882C15EC6
S1130CF0D040CD51DF4F19821882C35ED040CE015F
S1130D008F519F4F0E9436009FE72DE084E0915061
S1130D1020408040E1F700C00000C352DF4F198338
S1130D200883CD5DD040C152DF4F99828882CF5D68
S1130D30D040CE0183529F4F0E9436009FE72DE0A2
S1130D4084E0915020408040E1F700C00000C75289
S1130D50DF4F19821882C95DD040C552DF4F198216
S1130D601882CB5DD040CE0187529F4F0E9436003F
S1130D709FE72DE084E0915020408040E1F700C0DF
S1130D800000CB52DF4F19830883C55DD040C952A0
S1130D90DF4F39822882C75DD040CE018B529F4FEE
S1130DA00E9436009FEF2AE188E091502040804065
S1130DB0E1F700C00000CF52DF4FF982E882C15D45
S1130DC0D040CD52DF4F79826882C35DD040CE01DE
S1130DD08F529F4F0E9436009FE72DE084E0915090
S1130DE020408040E1F700C00000C353DF4F198367
S1130DF00883CD5CD040C153DF4FD982C882CF5C19
S1130E00D040CE0183539F4F0E9436009FE72DE0D0
S1130E1084E0915020408040E1F700C00000C753B7
S1130E20DF4F19830883C95CD040C553DF4FB982B3
S1130E30A882CB5CD040CE0187539F4F0E943600DE
S1130E409FE72DE084E0915020408040E1F700C00E
S1130E500000CB53DF4F19830883C55CD040C953CE
S1130E60DF4FB982A882C75CD040CE018B539F4F1D
S1130E700E9436009FEF25E380E19150204080409E
S1130E80E1F700C00000CF53DF4F19821882C15C24
S1130E90D040CD53DF4F19821882C35CD040CE01BD
S1130EA08F539F4F0E9436009FEF2AE188E09150B4
S1130EB020408040E1F700C00000C354DF4FF982B6
S1130EC0E882CD5BD040C154DF4F79826882CF5B2A
S1130ED0D040CE0183549F4F0E9436009FE72DE0FF
S1130EE084E0915020408040E1F700C00000C754E6
S1130EF0DF4F19830883C95BD040C554DF4FD982C3
S1130F00C882CB5BD040CE0187549F4F0E943600ED
S1130F109FE72DE084E0915020408040E1F700C03D
S1130F200000CB54DF4F19830883C55BD040C954FC
S1130F30DF4FB982A882C75BD040CE018B549F4F4C
S1130F400E9436009FE72DE084E0915020408040CD
S1130F50E1F700C00000CF54DF4F19830883C15B61
S1130F60D040CD54DF4FD982C882C35BD040CE017C
S1130F708F549F4F0E9436009FE72DE084E09150EC
S1130F8020408040E1F700C00000C355DF4F1982C4
S1130F901882CD5AD040C155DF4F19821882CF5ADA
S1130FA0D040CE0183559F4F0E9436009FE72DE02D
S1130FB084E0915020408040E1F700C00000C75514
S1130FC0DF4F19830883C95AD040C555DF4F998232
S1130FD08882CB5AD040CE0187559F4F0E9436005D
S1130FE09FE72DE084E0915020408040E1F700C06D
S1130FF00000CB55DF4F19821882C55AD040C9551D
S1131000DF4F19821882C75AD040CE018B559F4FAB
S11310100E9436009FE72DE084E0915020408040FC
S1131020E1F700C00000CF55DF4F19830883C15A90
S1131030D040CD55DF4FD982C882C35AD040CE01AB
S11310408F559F4F0E9436009FEF25E380E191501A
S113105020408040E1F700C00000C356DF4F1983F1
S11310600883CD59D040C156DF4F99828882CF5929
S1131070D040CE0183569F4F0E9436009FEF25E358
S113108080E1915020408040E1F700C00000C75645
S1131090DF4F19830883C959D040C556DF4FB98241
S11310A0A882CB59D040CE0187569F4F0E9436006C
S11310B09FE72DE084E0915020408040E1F700C09C
S11310C00000CB56DF4F19830883C559D040C95659
S11310D0DF4FD982C882C759D040CE018B569F4F6B
S11310E00E9436009FE72DE084E09150204080402C
S11310F0E1F700C00000CF56DF4FF982E882C15902
S1131100D040CD56DF4F79826882C359D040CE019A
S11311108F569F4F0E9436009FE72DE084E0915048
S113112020408040E1F700C00000C357DF4F19831F
S11311300883CD58D040C157DF4FD982C882CF58D9
S1131140D040CE0183579F4F0E9436009FE72DE089
S113115084E0915020408040E1F700C00000C75770
S1131160DF4F19821882C958D040C557DF4F198202
S11311701882CB58D040CE0187579F4F0E9436002B
S11311809FE72DE084E0915020408040E1F700C0CB
S11311900000CB57DF4FF982E882C558D040C957C9
S11311A0DF4F79826882C758D040CE018B579F4F5A
S11311B00E9436009FE72DE084E09150204080405B
S11311C0E1F700C00000CF57DF4F19830883C158EF
S11311D0D040CD57DF4F99828882C358D040CE018A
S11311E08F579F4F0E9436009FE72DE084E0915077
S11311F020408040E1F700C00000EF961FAF0EAF23
S1131200EF97C158DF4F39822882CF57D040CE01A3
S113121083589F4F0E9436009FEF2AE188E0915047
S113122020408040E1F700C00000EB96FFAEEEAE38
S1131230EB97ED967FAE6EAEED97CE0187589F4F3C
S11312400E9436009FE72DE084E0915020408040CA
S1131250E1F700C00000E7961FAF0EAFE797E996ED
S1131260DFAECEAEE997CE018B589F4F0E94360079
S11312709FE72DE084E0915020408040E1F700C0DA
S11312800000E396FFAEEEAEE3970F2EF8E12F2EAB
S1131290F2E03F2EF02DE5963FAE2EAEE597CE015F
S11312A08F589F4F0E9436009FE72DE084E09150B5
S11312B020408040E1F700C00000AF961FAF0EAFA2
S11312C0AF970F2EF4EA6F2EF2E07F2EF02DE19609
S11312D07FAE6EAEE197CE0183599F4F0E943600D8
S11312E09FEF25E380E1915020408040E1F700C06A
S11312F00000AB961FAF0EAFAB9784EF93E0AD96B3
S11313009FAF8EAFAD97CE0187599F4F0E94360095
S11313109FE72DE084E0915020408040E1F700C039
S11313200000A7961FAF0EAFA7970F2EF6E84F2E1B
S1131330F3E05F2EF02DA9965FAE4EAEA997CE01D5
S11313408B599F4F0E9436009FE72DE084E0915017
S113135020408040E1F700C00000A396FFAEEEAE4F
S1131360A3970F2EF4E28F2EF3E09F2EF02DA59677
S11313709FAE8EAEA597CE018F599F4F0E94360027
S11313809FE72DE084E0915020408040E1F700C0C9
S113139000006F961FAF0EAF6F97A1965FAE4EAE73
S11313A0A197CE01835A9F4F0E9436009FEF2AE1F6
S11313B088E0915020408040E1F700C000006B9627
S11313C0FFAEEEAE6B976D969FAE8EAE6D97CE016F
S11313D0875A9F4F0E9436009FE72DE084E091508A
S11313E020408040E1F700C000006796FFAEEEAEFB
S11313F067970F2EFCECAF2EF2E0BF2EF02D69960E
S1131400BFAEAEAE6997CE018B5A9F4F0E94360095
S11314109FE72DE084E0915020408040E1F700C038
S113142000006396FFAEEEAE639765969FAE8EAEF8
S11314306597CE018F5A9F4F0E9436009FEF2AE195
S113144088E0915020408040E1F700C000002F96D2
S1131450FFAEEEAE2F976196BFAEAEAE6197CE01F2
S1131460835B9F4F0E9436009FE72DE084E09150FC
S113147020408040E1F700C000002B961FAF0EAF64
S11314802B972D967FAE6EAE2D97CE01875B9F4F27
S11314900E9436009FE72DE084E091502040804078
S11314A0E1F700C0000027961FAF0EAF27972996DB
S11314B0DFAECEAE2997CE018B5B9F4F0E943600E4
S11314C09FEF2AE188E0915020408040E1F700C07E
S11314D0000023961FAF0EAF239725967FAE6EAE06
S11314E02597CE018F5B9F4F0E9436009FE72DE02A
S11314F084E0915020408040E1F700C00000FEAE3F
S1131500EDAE2196BFAEAEAE2197CE01CD960E9430
S113151036009FE72DE084E0915020408040E1F7C1
S113152000C000001AAF09AF5CAE4BAECE01C99645
S11315300E9436009FE72DE084E0915020408040D7
S1131540E1F700C000001EAB0DABD8AECFAACE01B0
S1131550C5960E9436009FEF2AE188E09150204012
S11315608040E1F700C000001AAA19AA1CAA1BAA0D
S1131570CE01C1960E9436009FE72DE084E0915091
S113158020408040E1F700C000001EA70DA7D8AAA4
S1131590CFA6CE018D960E9436009FE72DE084E011
S11315A0915020408040E1F700C000001AA709A72D
S11315B0DCA6CBA6CE0189960E9436009FE72DE0DB
S11315C084E0915020408040E1F700C00000FEA27A
S11315D0EDA238A62FA2CE0185960E9436009FE781
S11315E02DE084E0915020408040E1F700C00000ED
S11315F01AA309A3DCA2CBA2CE0181960E943600D5
S11316009FE72DE084E0915020408040E1F700C046
S113161000001E8F0D8FD8A2CF8ECE014D960E9452
S113162036009FE72DE084E0915020408040E1F7B0
S113163000C000001A8E198E1C8E1B8ECE01499696
S11316400E9436009FE72DE084E0915020408040C6
S1131650E1F700C000001E8B0D8B0F2EFEE7CF2E8E
S1131660F2E0DF2EF02DD88ECF8ACE0145960E946F
S113167036009FE72DE084E0915020408040E1F760
S113168000C000001A8A198A1C8A1B8ACE0141965E
S11316900E9436009FE72DE084E091502040804076
S11316A0E1F700C00000FE86ED86B88AAF86CE0161
S11316B00D960E9436009FE72DE084E09150204073
S11316C08040E1F700C000001A8619861C861B863C
S11316D0CE0109960E9436009FE72DE084E09150E8
S11316E020408040E1F700C000001E830D83D886AF
S11316F0CF82CE0105960E9436009FEF2AE188E052
S1131700915020408040E1F700C000001A82198205
S11317101C821B82CE0101960E9436009FEF2BE6AD
S113172080E2915020408040E1F700C000009FEF2C
S11317302BE680E2915020408040E1F700C0000099
S11317409FEF2BE680E2915020408040E1F700C0FB
S10D175000000C945000F894FFCF41
S9030000FC
