S01100007072616374696361372E7372656395
S11300000C942A000C943F000C943F000C943F0085
S11300100C943F000C943F000C943F000C943F0060
S11300200C943F000C943F000C943F000C943F0050
S11300300C943F000C943F000C943F000C943F0040
S11300400C943F000C943F000C943F000C943F0030
S11300500C943F0011241FBECFE5D4E0DEBFCDBF1A
S113006011E0A0E6B0E0E2E2F1E002C005900D92FA
S1130070A230B107D9F70E9477000C948F000C943A
S113008000008FEF87BB18BA8BE183BF0895DC01B2
S113009026C012966D917C9113971496E130F10568
S11300A019F08BE183BFECBF40E050E00BC02FE7B9
S11300B088E391E0215080409040E1F700C00000C7
S11300C04F5F5F4F9B01772314F42D5F3F4F3595AE
S11300D0279535952795421753074CF32E2FED910D
S11300E0FC9111973097A9F613BE2CBF08950E9476
S11300F0410064E180E690E00E94470080E090E0E7
S11301000AC02FE73AE146E0215030404040E1F791
S113011000C000000196843091059CF3EACFF89466
S1050120FFCF0B
S11301222F000800320008002F00080032000800E7
S11301322F0008003F000800350008003C000800BA
S11301424700080001000800780008005F0008006A
S1130152470008003F000400010008005F00080097
S11301624B0008003F0008003C00040001000800A6
S11301725F0008005F000800320008002F0008003A
S1130182320008002F0008003F0008003500080074
S11301923C0008004700080001000800780008003D
S11301A25F000800470008003F0004000100080047
S11301B25F0008003C0008003F00080047000400FC
S10501C2000037
S9030000FC
