:100000000C942A000C9434000C9434000C943400AA
:100010000C9434000C9434000C9434000C94340090
:100020000C9434000C9434000C9434000C94340080
:100030000C9434000C9434000C9434000C94340070
:100040000C9434000C9434000C9434000C94340060
:100050000C94340011241FBECFE5D4E0DEBFCDBF29
:100060000E944A000C9484000C9400009DEC899F2F
:10007000912D1124969596959695392F330F232F10
:10008000220F220F230F821B20E1829F900D11244B
:1000900095BB08958AB31ABA8BB38FEF8BBB94B319
:1000A00084BB85B315BA80E00E943600C0E0C899D1
:1000B00015C083ED90E30197F1F700C00000C33154
:1000C00008F4CF5F8C2F0E943600C89BFECF83EDD3
:1000D00090E30197F1F700C00000E9CFCF99E7CF97
:1000E00083ED90E30197F1F700C00000C111C1500A
:1000F0008C2F0E943600CF9BFECF83ED90E30197BB
:0C010000F1F700C00000D3CFF894FFCF4F
:00000001FF
