:020000020000FC
:100000000C942A000C9485000C948A000C948F00A8
:100010000C9494000C9499000C949E000C94A300F2
:100020000C94A8000C94AD000C94B2000C94B70092
:100030000C94BC000C94C1000C94C6000C94CB0032
:100040000C94D0000C94D5000C94DA000C94800031
:100050000C94DF0004E00EBF0FE50DBF0AE103BF03
:100060000FEF07BB00E008BB11D03FD019D03DD047
:1000700026D03BD029D039D013D037D007D035D0B7
:1000800023D033D02FD031D030D0EECF0BE30CBF04
:100090000BE103BF089504E30CBF0BE103BF089518
:1000A00002E00CBF0DE103BF08950CE20CBF0BE1B1
:1000B00003BF089507E20CBF0BE103BF089502E2FE
:1000C0000CBF0BE103BF08950CEF0CBF0AE103BFA7
:1000D000089502D001D0089502D001D0089505D02E
:1000E00004D0089500E003BF089517EA22E038EF36
:1000F0003A95F1F72A95D9F71A95C1F700000895B6
:100100000FB70F930F910FBF18950FB70F930F9164
:100110000FBF18950FB70F930F910FBF18950FB71B
:100120000F930F910FBF18950FB70F930F910FBF3C
:1001300018950FB70F930F910FBF18950FB70F9327
:100140000F910FBF18950FB70F930F910FBF189511
:100150000FB70F930F910FBF18950FB70F930F9114
:100160000FBF18950FB70F930F910FBF18950FB7CB
:100170000F930F910FBF18950FB70F930F910FBFEC
:1001800018950FB70F930F910FBF18950FB70F93D7
:100190000F910FBF18950FB70F930F910FBF1895C1
:1001A0000FB70F930F910FBF18950FB70F930F91C4
:1001B0000FBF18950FB70F930F910FBF18950FB77B
:0801C0000F930F910FBF18957A
:00000001FF
