S0120000507261637469636120332E7372656398
S11300000C942A000C9434000C9434000C943400A6
S11300100C9434000C9434000C9434000C9434008C
S11300200C9434000C9434000C9434000C9434007C
S11300300C9434000C9434000C9434000C9434006C
S11300400C9434000C9434000C9434000C9434005C
S11300500C94340011241FBECFE5D4E0DEBFCDBF25
S11300600E94D9010C9400020C94000082B38064B5
S113007082BB00C082B38F7B82BB0895CF93DF9392
S1130080D82F662321F082B3806182BB03C082B380
S11300908F7E82BB82B38F7D82BB81B38F6081BB35
S11300A0C2B3C07F8D2F82958F708C2B82BB0E9430
S11300B03600DF70DC2BD2BB0E943600CF60C2BB9F
S11300C0DF91CF910895882321F082B3806182BBB0
S11300D003C082B38F7E82BB82B3806282BB81B352
S11300E0807F81BB82B3806482BB00C090B3929551
S11300F0907F82B38F7B82BB00C082B3806482BB5B
S113010000C080B38F7022B32F7B22BB892B08954C
S113011080E00E9463008823DCF382E090E0019792
S1130120F1F780E00E9463000895CF93C82F0E94E6
S1130130880060E08C2F0E943E00CF9108956111E9
S113014004C080580E949500089580540E94950030
S1130150089581E00E9495000895CF93C82F0E94CE
S11301608800CA3049F4803410F480E401C080E08F
S113017080580E94950004C061E08C2F0E943E00CC
S1130180CF9108951F93CF93DF93182F81B38F6777
S113019081BB80E89EE30197F1F782B3826082BB62
S11301A082B3816082BB0E94360080E893E10197AC
S11301B0F1F70E943600C0E4D0E0CE010197F1F7D8
S11301C00E943600CE010197F1F782B38E7F82BB85
S11301D00E9436002197F1F788E20E94950088E09A
S11301E00E9495000E94A90086E00E949500812F3C
S11301F00E949500DF91CF911F910895FC018081A9
S113020090E002C0959587956A95E2F7F1E08F2713
S1130210817008950F931F93CF938C01C62F83EDA4
S113022090E30197F1F700C000006C2FC8010E9411
S1130230FE008111FACF83ED90E30197F1F700C03E
S11302400000CF911F910F910895CF938FE08ABB47
S1130250CFE2A9C08DEF8BBB64E089E390E00E94FC
S1130260FE00882331F064E089E390E00E940A01F3
S1130270CAE365E089E390E00E94FE00882331F040
S113028065E089E390E00E940A01C9E366E089E33E
S113029090E00E94FE00882331F066E089E390E05C
S11302A00E940A01C6E367E089E390E00E94FE0031
S11302B0882331F067E089E390E00E940A01C3E3F8
S11302C0CF3209F073C08BEF8BBB64E089E390E01D
S11302D00E94FE00882331F064E089E390E00E94EC
S11302E00A01C0E365E089E390E00E94FE008823F0
S11302F031F065E089E390E00E940A01C8E366E01A
S113030089E390E00E94FE00882331F066E089E3EF
S113031090E00E940A01C5E367E089E390E00E944F
S1130320FE00882331F067E089E390E00E940A012F
S1130330C2E3CF32D9F587EF8BBB64E089E390E069
S11303400E94FE00882331F064E089E390E00E947B
S11303500A01CBE365E089E390E00E94FE00882374
S113036031F065E089E390E00E940A01C7E366E0AA
S113037089E390E00E94FE00882331F066E089E37F
S113038090E00E940A01C4E367E089E390E00E94E0
S1130390FE00882331F067E089E390E00E940A01BF
S11303A0C1E3CF3219F4CF3209F454CF8C2FCF915B
S11303B008958CE00E94C2000E94A900C0E00E943F
S11303C025018B3321F40E94A900C0E0F8CF8A33C1
S11303D079F4CC2369F0C15060E08C2F0E949F0017
S11303E080E20E94AD0060E08C2F0E949F00E7CF66
S11303F08A3328F7CA3018F70E94AD00CF5FDFCFE9
S1070400F894FFCF9A
S9030000FC
