:100000000C942A000C943F000C943F000C943F0089
:100010000C943F000C943F000C943F000C943F0064
:100020000C943F000C943F000C943F000C943F0054
:100030000C943F000C943F000C943F000C943F0044
:100040000C943F000C943F000C943F000C943F0034
:100050000C943F0011241FBECFE5D4E0DEBFCDBF1E
:1000600010E0A0E6B0E0E8E1F6E002C005900D92F5
:10007000AC36B107D9F70E9434010C940A030C94F2
:100080000000AE9A00C0AE980895CF93DF93D82FAA
:10009000662311F0AC9A01C0AC98AD9884B38F6020
:1000A00084BBC5B3C07F8D2F82958F708C2B85BB91
:1000B0000E944100DF70DC2BD5BB0E944100CF6065
:1000C000C5BBDF91CF910895882311F0AC9A01C090
:1000D000AC98AD9A84B3807F84BBAE9A00C093B3D2
:1000E000AE9800C0AE9A00C023B32F70892F8295BE
:1000F000807FAE98822B089580E00E946400882360
:10010000DCF382E090E00197F1F780E00E94640068
:100110000895CF93C82F0E947C0060E08C2F0E942E
:100120004500CF910895611104C080580E94890054
:10013000089580540E948900089581E00E948900FA
:100140000895CF93C82F0E947C00CA3049F48034B0
:1001500010F080E001C080E480580E94890004C053
:1001600061E08C2F0E944500CF910895CF93DF93DB
:10017000EC012196FC018081882329F00E94A100D6
:1001800089918111FBCFDF91CF9108951F93CF9378
:10019000DF93182F84B38F6784BB80E89EE30197B9
:1001A000F1F7A99AA89A0E94410080E893E101978B
:1001B000F1F70E944100C0E4D0E0CE010197F1F7D1
:1001C0000E944100CE010197F1F7A8980E944100DA
:1001D0002197F1F788E20E94890088E00E94890057
:1001E0000E949D0086E00E948900812F0E94890064
:1001F000DF91CF911F9108951F93CF93DF9300D08C
:1002000000D0CDB7DEB7182F862F642F0E94930041
:1002100080E389838A831123A9F0FE0131963DECA6
:10022000139F812D1124869586958695282F220F60
:10023000922F990F990F920F191B105D1193182F80
:100240008111EECF8A810E94A10080E690E00E9499
:10025000B60089810E94A1000F900F900F900F901F
:10026000DF91CF911F910895789483E988BB86B977
:1002700080E687B98CE00E94C6008FEF87BB82E6DC
:1002800090E00E94B60061E080E00E94930087B198
:10029000876087B9369A349BFECF349A65B170E097
:1002A00080E090E00E940F0220E030E048E452E459
:1002B0000E949D0220E030E04FE753E40E946E016F
:1002C0000E94E001862F41E060E00E94FC008FE484
:1002D00093EC0197F1F700C00000D9CF0E94820192
:1002E0000C9463020E945C0258F00E94550240F098
:1002F00029F45F3F29F00C944C0251110C949702A1
:100300000C9452020E94740268F39923B1F35523AE
:1003100091F3951B550BBB27AA2762177307840718
:1003200038F09F5F5F4F220F331F441FAA1FA9F3AE
:1003300035D00E2E3AF0E0E832D091505040E6959C
:10034000001CCAF72BD0FE2F29D0660F771F881FFD
:10035000BB1F261737074807AB07B0E809F0BB0BF0
:10036000802DBF01FF2793585F4F3AF09E3F510504
:1003700078F00C944C020C9497025F3FE4F3983EA3
:10038000D4F3869577956795B795F7959F5FC9F7ED
:10039000880F911D9695879597F90895E1E0660F6E
:1003A000771F881FBB1F621773078407BA0720F0E7
:1003B000621B730B840BBA0BEE1F88F7E095089550
:1003C0000E947C0288F09F5798F0B92F9927B75167
:1003D000B0F0E1F0660F771F881F991F1AF0BA95E9
:1003E000C9F714C0B13091F00E949602B1E00895AF
:1003F0000C949602672F782F8827B85F39F0B93FA1
:10040000CCF3869577956795B395D9F73EF490959B
:100410008095709561957F4F8F4F9F4F0895E89419
:1004200009C097FB3EF490958095709561957F4F3C
:100430008F4F9F4F9923A9F0F92F96E9BB279395EA
:10044000F695879577956795B795F111F8CFFAF4FA
:10045000BB0F11F460FF1BC06F5F7F4F8F4F9F4F2B
:1004600016C0882311F096E911C0772321F09EE889
:10047000872F762F05C0662371F096E8862F70E0EF
:1004800060E02AF09A95660F771F881FDAF7880FC9
:100490009695879597F9089597F99F6780E870E09A
:1004A00060E008959FEF80EC089500240A941616EA
:1004B000170618060906089500240A941216130652
:1004C000140605060895092E0394000C11F48823E0
:1004D00052F0BB0F40F4BF2B11F460FF04C06F5FFC
:1004E0007F4F8F4F9F4F089557FD9058440F551FD2
:1004F00059F05F3F71F04795880F97FB991F61F0A6
:100500009F3F79F087950895121613061406551F1C
:10051000F2CF4695F1DF08C0161617061806991F88
:10052000F1CF86957105610508940895E894BB277D
:1005300066277727CB0197F908950E94B0020C94A3
:1005400063020E94550238F00E945C0220F095235D
:1005500011F00C944C020C94520211240C9497024A
:100560000E94740270F3959FC1F3950F50E0551FE0
:10057000629FF001729FBB27F00DB11D639FAA27F8
:10058000F00DB11DAA1F649F6627B00DA11D661F47
:10059000829F2227B00DA11D621F739FB00DA11D68
:1005A000621F839FA00D611D221F749F3327A00D22
:1005B000611D231F849F600D211D822F762F6A2FBE
:1005C00011249F5750409AF0F1F088234AF0EE0F23
:1005D000FF1FBB1F661F771F881F91505040A9F750
:1005E0009E3F510580F00C944C020C9497025F3FA3
:1005F000E4F3983ED4F3869577956795B795F7958C
:10060000E7959F5FC1F7FE2B880F911D9695879503
:0806100097F90895F894FFCF5B
:0C0618002E00566F6C74616A653A000099
:00000001FF
