:100000000C942A000C943F000C943F000C943F0089
:100010000C943F000C943F000C943F000C943F0064
:100020000C943F000C943F000C943F000C943F0054
:100030000C943F000C943F000C942B010C943F0057
:100040000C943F000C943F000C943F000C943F0034
:100050000C943F0011241FBECFE5D4E0DEBFCDBF1E
:1000600010E0A0E6B0E0E2E3F7E002C005900D92F8
:10007000AA37B107D9F70E9418010C9497030C9482
:10008000000085B3806485BB00C085B38F7B85BBD2
:100090000895CF93DF93D82F662321F085B3806135
:1000A00085BB03C085B38F7E85BB85B38F7D85BB44
:1000B00084B38F6084BBC5B3C07F8D2F82958F7052
:1000C0008C2B85BB0E944100DF70DC2BD5BB0E94CE
:1000D0004100CF60C5BBDF91CF910895882321F007
:1000E00085B3806185BB03C085B38F7E85BB85B337
:1000F000806285BB84B3807F84BB85B3806485BB0D
:1001000000C093B39295907F85B38F7B85BB00C071
:1001100085B3806485BB00C083B38F7025B32F7B0C
:1001200025BB892B089580E00E946E008823DCF3B4
:1001300084E090E00197F1F780E00E946E0008955E
:10014000CF93C82F0E94930060E08C2F0E9449003B
:10015000CF910895611104C080580E94A0000895B5
:1001600080540E94A000089581E00E94A00008959C
:10017000CF93C82F0E949300CA3049F4803410F402
:1001800080E401C080E080580E94A00004C061E0CB
:100190008C2F0E944900CF910895CF93DF93FC01EB
:1001A00003C00E94B800FE01EF01219680818111F9
:1001B000F8CFDF91CF9108951F93CF93DF93182F3E
:1001C00084B38F6784BB80E09DE70197F1F785B327
:1001D000826085BB85B3816085BB0E94410080E061
:1001E00097E20197F1F70E944100C0E8D0E0CE010C
:1001F0000197F1F70E944100CE010197F1F785B315
:100200008E7F85BB0E9441002197F1F788E20E9412
:10021000A00088E00E94A0000E94B40086E00E9436
:10022000A000812F0E94A000DF91CF911F9108951F
:1002300078948EE886B980E487B987B1876087B9FA
:100240008CE00E94DC0080E690E00E94CD0086B148
:10025000806486B9FFCF1F920F920FB60F921124C0
:10026000CF92DF92EF92FF922F933F934F935F9342
:100270006F937F938F939F93AF93BF93CF93DF93AE
:10028000EF93FF9361E080E00E94AA0088E690E08F
:100290000E94CD0061E080E00E94AA0064B175B1C7
:1002A00080E090E00E94740220E030E040EA50E4F8
:1002B0000E94020320E030EC4FE754E40E94CC019E
:1002C0006B017C010E943E02CAE0D0E0CB01BE017E
:1002D0000E946F03805D0E94B80020E030E040E2A1
:1002E00051E4C701B6010E9402036B017C018EE25A
:1002F0000E94B800C701B6010E943E02CB01BE01B8
:100300000E946F03805D0E94B80020E030E040E270
:1003100051E4C701B6010E9402036B017C010E94F7
:100320003E02CB01BE010E946F03805D0E94B800B7
:1003300020E030E040E251E4C701B6010E94020330
:100340000E943E02CB01BE010E946F03805D0E94AD
:10035000B8002FEF80E792E0215080409040E1F715
:1003600000C0000086B1806486B9FF91EF91DF91F3
:10037000CF91BF91AF919F918F917F916F915F913D
:100380004F913F912F91FF90EF90DF90CF900F9082
:100390000FBE0F901F9018950E94E0010C94C802A8
:1003A0000E94C10258F00E94BA0240F029F45F3F57
:1003B00029F00C94B10251110C94FC020C94B70278
:1003C0000E94D90268F39923B1F3552391F3951B49
:1003D000550BBB27AA2762177307840738F09F5F66
:1003E0005F4F220F331F441FAA1FA9F335D00E2ED3
:1003F0003AF0E0E832D091505040E695001CCAF740
:100400002BD0FE2F29D0660F771F881FBB1F261702
:1004100037074807AB07B0E809F0BB0B802DBF01D9
:10042000FF2793585F4F3AF09E3F510578F00C94A8
:10043000B1020C94FC025F3FE4F3983ED4F386953E
:1004400077956795B795F7959F5FC9F7880F911DC9
:100450009695879597F90895E1E0660F771F881FB5
:10046000BB1F621773078407BA0720F0621B730B68
:10047000840BBA0BEE1F88F7E09508950E944502A1
:100480006894B1110C94FC0208950E94E10288F076
:100490009F5798F0B92F9927B751B0F0E1F0660F48
:1004A000771F881F991F1AF0BA95C9F714C0B13089
:1004B00091F00E94FB02B1E008950C94FB02672FBB
:1004C000782F8827B85F39F0B93FCCF386957795B8
:1004D0006795B395D9F73EF49095809570956195A1
:1004E0007F4F8F4F9F4F0895E89409C097FB3EF4CC
:1004F00090958095709561957F4F8F4F9F4F992371
:10050000A9F0F92F96E9BB279395F69587957795EE
:100510006795B795F111F8CFFAF4BB0F11F460FFAE
:100520001BC06F5F7F4F8F4F9F4F16C0882311F006
:1005300096E911C0772321F09EE8872F762F05C01A
:10054000662371F096E8862F70E060E02AF09A95B5
:10055000660F771F881FDAF7880F9695879597F9AA
:10056000089597F99F6780E870E060E008959FEF35
:1005700080EC089500240A9416161706180609063A
:10058000089500240A941216130614060506089509
:10059000092E0394000C11F4882352F0BB0F40F491
:1005A000BF2B11F460FF04C06F5F7F4F8F4F9F4FD1
:1005B000089557FD9058440F551F59F05F3F71F053
:1005C0004795880F97FB991F61F09F3F79F08795BA
:1005D0000895121613061406551FF2CF4695F1DF43
:1005E00008C0161617061806991FF1CF86957105D3
:1005F000610508940895E894BB2766277727CB0107
:1006000097F908950E9415030C94C8020E94BA023B
:1006100038F00E94C10220F0952311F00C94B10231
:100620000C94B70211240C94FC020E94D90270F3BE
:10063000959FC1F3950F50E0551F629FF001729F87
:10064000BB27F00DB11D639FAA27F00DB11DAA1F96
:10065000649F6627B00DA11D661F829F2227B00DE3
:10066000A11D621F739FB00DA11D621F839FA00D6E
:10067000611D221F749F3327A00D611D231F849FBE
:10068000600D211D822F762F6A2F11249F57504015
:100690009AF0F1F088234AF0EE0FFF1FBB1F661F90
:1006A000771F881F91505040A9F79E3F510580F059
:1006B0000C94B1020C94FC025F3FE4F3983ED4F337
:1006C000869577956795B795F795E7959F5FC1F7FD
:1006D000FE2B880F911D9695879597F9089597FBA6
:1006E000072E16F4009407D077FD09D00E948303EB
:1006F00007FC05D03EF4909581959F4F0895709525
:1007000061957F4F0895AA1BBB1B51E107C0AA1F2B
:10071000BB1FA617B70710F0A61BB70B881F991FA2
:100720005A95A9F780959095BC01CD010895F8944C
:02073000FFCFF9
:10073200566F6C74616A65002020202020202020E2
:0A07420020202020202020200000AD
:00000001FF
