S016000070726163746963614578747261312E7372656392
S11300000C942A000C9447000C9447000C9447006D
S11300100C9447000C9447000C9447000C94470040
S11300200C9447000C9447000C9447000C94470030
S11300300C9447000C9447000C9447000C94470020
S11300400C9447000C9447000C9447000C94470010
S11300500C94470011241FBECFE5D4E0DEBFCDBF12
S113006011E0A0E6B0E0E6E7FCE002C005900D92E6
S1130070AC36B107D9F721E0ACE6B1E001C01D927E
S1130080A138B207E1F70E947F040C9439060C945E
S1130090000085B3806485BB00C085B38F7B85BBBE
S11300A00895CF93DF93D82F662321F085B3806121
S11300B085BB03C085B38F7E85BB85B38F7D85BB30
S11300C084B38F6084BBC5B3C07F8D2F82958F703E
S11300D08C2B85BB0E944900DF70DC2BD5BB0E94B2
S11300E04900CF60C5BBDF91CF910895882321F0EB
S11300F085B3806185BB03C085B38F7E85BB85B323
S1130100806285BB84B3807F84BB85B3806485BBF8
S113011000C093B39295907F85B38F7B85BB00C05D
S113012085B3806485BB00C083B38F7025B32F7BF8
S113013025BB892B089580E00E9476008823DCF398
S113014082E090E00197F1F780E00E947600089544
S1130150CF93C82F0E949B0060E08C2F0E94510017
S1130160CF910895611104C080580E94A800089599
S113017080540E94A800089581E00E94A800089578
S1130180CF93C82F0E949B00CA3049F4803410F4E6
S113019080E401C080E080580E94A80004C061E0AF
S11301A08C2F0E945100CF910895CF93DF93FC01CF
S11301B003C00E94C000FE01EF01219680818111DD
S11301C0F8CFDF91CF9108951F93CF93DF93182F2A
S11301D084B38F6784BB80E89EE30197F1F785B30E
S11301E0826085BB85B3816085BB0E94490080E83D
S11301F093E10197F1F70E944900C0E4D0E0CE01F9
S11302000197F1F70E944900CE010197F1F785B3F8
S11302108E7F85BB0E9449002197F1F788E20E94F6
S1130220A80088E00E94A8000E94BC0086E00E940A
S1130230A800812F0E94A800DF91CF911F910895FB
S1130240809164008F5F80936400809164008333A5
S113025018F081E08093640040E058C0242F30E01F
S113026067E070E0621B730B81E090E002C0880FCE
S1130270991F6A95E2F780958BBBC89910C0F90164
S1130280EE0FFF1FEE0FFF1FE758FF4F83818033F0
S113029030F08A3320F491E090937F010895C99956
S11302A010C0F901EE0FFF1FEE0FFF1FE758FF4FBD
S11302B08281803330F08A3320F492E090937F017E
S11302C00895CA9910C0F901EE0FFF1FEE0FFF1F2A
S11302D0E758FF4F8181803330F08A3320F494E073
S11302E090937F010895CB9910C0220F331F220FE2
S11302F0331FF901E758FF4F8081803330F08A3390
S113030020F498E090937F0108954F5F443008F4FF
S1130310A5CF96CF40E064C0809164008F5F809346
S1130320640080916400833318F081E0809364005A
S1130330242F30E067E070E0621B730B81E090E0F3
S113034002C0880F991F6A95E2F780958BBBC89904
S113035010C0F901EE0FFF1FEE0FFF1FE758FF4F0C
S11303608381813330F08A3320F491E090937F01CC
S11303700895C99910C0F901EE0FFF1FEE0FFF1F7A
S1130380E758FF4F8281813330F08A3320F492E0C2
S113039090937F010895CA9910C0F901EE0FFF1FD1
S11303A0EE0FFF1FE758FF4F8181813330F08A330E
S11303B020F494E090937F010895CB9910C0220F0C
S11303C0331F220F331FF901E758FF4F8081813318
S11303D030F08A3320F498E090937F0108954F5FC2
S11303E0443008F499CF96CF40E050C0242F30E039
S11303F067E070E0621B730B81E090E002C0880F3D
S1130400991F6A95E2F780958BBBC8990EC0F901D4
S1130410EE0FFF1FEE0FFF1FE758FF4F83818B3254
S113042021F491E090937F010895C9990EC0F901D8
S1130430EE0FFF1FEE0FFF1FE758FF4F82818B3235
S113044021F492E090937F010895CA990EC0F901B6
S1130450EE0FFF1FEE0FFF1FE758FF4F81818B3216
S113046021F494E090937F010895CB990EC0220F5C
S1130470331F220F331FF901E758FF4F80818B325E
S113048021F498E090937F0108954F5F443008F47D
S1130490ADCFAACF83ED90E30197F1F700C0000040
S11304A089B390E09C012095309580917F0190E084
S11304B082239323892BA1F783ED90E30197F1F72E
S11304C000C00000089589E890E00E94D5000E94D1
S11304D08A0180937C018091640090E00E94CB05A6
S11304E00E944A020895CF93C82F0E94BC008AE953
S11304F090E00E94D50060E08AE00E94B2008C2F58
S11305000E94C00061E080E00E94B20085EA90E0B1
S11305100E94D500CF9108950E94BC0080EB90E02A
S11305200E94D50061E080E00E94B20080917C01CD
S11305300E94C00061E083E00E94B20085EA90E07E
S11305400E94D50080E090E007C0E3E2F4EF319729
S1130550F1F700C00000019688309105B4F30E94C1
S1130560BC0080EC90E00E94D50061E080E00E9435
S1130570B2008EEC90E00E94D50080E090E007C0CD
S1130580E3E2F4EF3197F1F700C000000196883000
S11305909105B4F30E94BC008CED90E00E94D5005C
S11305A061E080E00E94B20087EE90E00E94D500F6
S11305B00E94F4010E944A020895FF920F931F9330
S11305C0CF93DF93F82EC0E0D0E04CC00E94C60564
S11305D081709078992324F401978E6F9F6F019610
S11305E011E0180F0E94C6056AE070E00E945205EF
S11305F000E029C00E94C60581709078992324F4F4
S113060001978E6F9F6F019611E0180F0E94C60527
S11306106AE070E00E94520520E030E041E00FC043
S1130620F901EB59FF4F9081191307C0F901E15902
S1130630FF4F9081891301C0402F2F5F3F4F2C172C
S11306403D0774F3042F0023A9F2FE01EB59FF4F79
S11306501083FE01E159FF4F8083FE01E159FE4FF3
S1130660108221968F2D90E0C817D9070CF4AECFD5
S1130670DF91CF911F910F91FF900895FF920F93F7
S11306801F93CF93DF93F82E0E94BC0086EF90E077
S11306900E94D50061E080E00E94B2008FEF90E0FC
S11306A00E94D50080E090E007C0E3E2F4EF3197C8
S11306B0F1F700C00000019688309105B4F38F2D46
S11306C00E94DD02C1E0D0E03CC00E94BC008CE08E
S11306D091E00E94D50060E089E00E94B2008C2F76
S11306E0805D0E94C00061E080E00E94B2008E0143
S11306F001501109F801EB59FF4F8081805D0E9480
S1130700C00061E081E00E94B2008CE20E94C0005F
S113071061E082E00E94B200F801E159FF4F80815C
S1130720805D0E94C00080E090E007C0E3E2F4EF47
S11307303197F1F700C00000019688309105B4F3B9
S113074021968F2D90E08C179D070CF0BECF0E9450
S1130750BC0086E191E00E94D50060E087E00E9441
S1130760B200FF0CCDECFC9EC12D1124C695C6959C
S1130770C69580E38C0F0E94C00060E088E00E9470
S1130780B200CC0F8C2F880F880FC80F8F2D8C1BB5
S1130790805D0E94C00061E080E00E94B2008EE1B2
S11307A091E00E94D50080E090E007C0E3E2F4EF1E
S11307B03197F1F700C00000019688309105B4F339
S11307C0DF91CF911F910F91FF90089560917C016B
S11307D06F5220E030E070E03AC0F901E159FE4F79
S11307E08081811119C0F901EB59FF4F408150E01C
S11307F08091800190E0C0974817590769F4F90186
S1130800E159FF4F408150E080917D0190E0C09715
S11308104817590709F4622FF901EB59FF4F40813A
S113082050E08091800190E0C0974817590769F41F
S1130830F901E159FF4F408150E080917D0190E042
S1130840C0974817590709F471E02F5F3F4F809113
S11308507C0190E0C097281739070CF4BECF262FEF
S113086030E080917C0190E08F97281739079CF441
S1130870F901E159FE4F81E0808380916D018F5F22
S113088080936D0161E080E00E94B20088E291E013
S11308900E94D50023C0772361F061E080E00E94CC
S11308A0B20080E391E00E94D50081E080936C0166
S11308B015C080918001833348F061E080E00E949C
S11308C0B20089E391E00E94D50008C061E080E0B5
S11308D00E94B20088E491E00E94D50080916D01ED
S11308E088BB80E090E007C0E3E2F4EF3197F1F7D2
S11308F000C00000019688309105B4F308958FEF8D
S113090087BB80916D0188BB80EF8ABB8CE00E941D
S1130910E40080916D0188BB0E94630280917C0198
S11309200E94730280E090E007C0E3E2F4EF3197A5
S1130930F1F700C00000019688309105B4F30E94DD
S11309408C0280917C0180530E943E0381E080935D
S11309506E0110926D0110927E0110917C01105372
S1130960C1E0D0E077C00E94BC008EE491E00E9418
S1130970D50060E088E00E94B200CE016AE070E039
S11309800E945205082F80E3860F0E94C00060E099
S113099089E00E94B20080E3800F0E94C0000E94A0
S11309A02001809380010E944A0260E08BE00E9453
S11309B0B20088E20E94C00060E08CE00E94B200B5
S11309C0809180010E94C00060E08DE00E94B2002E
S11309D08CE20E94C00060E08EE00E94B2000E949F
S11309E0200180937D010E944A0280917D010E9432
S11309F0C00060E08FE00E94B20089E20E94C00063
S1130A0010926C010E94E60380916C018111219780
S1130A1080916D0118131DC00E94BC0087E591E010
S1130A200E94D50080E090E007C0E3E2F4EF319744
S1130A30F1F700C00000019688309105B4F31092DC
S1130A407C0181E080937E010E94BC0010926D01C4
S1130A5010E02196812F90E0880F991F8C179D0735
S1130A600CF081CF80917E01811153CF0E94BC0094
S1130A7080E691E00E94D50080E090E007C0E3E2C8
S1130A80F4EF3197F1F700C000000196883091052A
S1130A90B4F310927C0110927E010E94BC0010926B
S1130AA06D0137CF97FB072E16F4009407D077FD1E
S1130AB009D00E94660507FC05D03EF49095819507
S1130AC09F4F0895709561957F4F0895AA1BBB1B96
S1130AD051E107C0AA1FBB1FA617B70710F0A61B3A
S1130AE0B70B881F991F5A95A9F780959095BC015B
S1130AF0CD0108958F929F92AF92BF92CF92DF92D1
S1130B00EF92FF92CF93DF93EC01688179818A8120
S1130B109B81611571058105910521F464E279EDEC
S1130B208BE597E02DE133EF41E050E00E94D605DC
S1130B3049015A019B01AC01A7EAB1E40E94F50501
S1130B406B017C01ACEEB4EFA50194010E94030695
S1130B50DC01CB018C0D9D1DAE1DBF1DB7FF03C075
S1130B600197A109B04888839983AA83BB839F779F
S1130B70DF91CF91FF90EF90DF90CF90BF90AF9037
S1130B809F908F9008950E947A05089580E690E0E2
S1130B900E947A050895A0E0B0E0809360009093ED
S1130BA06100A0936200B09363000895052E97FB43
S1130BB01EF400940E94ED0557FD07D00E9408061C
S1130BC007FC03D04EF40C94ED05509540953095F8
S1130BD021953F4F4F4F5F4F0895909580957095A5
S1130BE061957F4F8F4F9F4F08950E942A06A59FBE
S1130BF0900DB49F900DA49F800D911D1124089514
S1130C00B7FF0C94F5050E94F505821B930B08951C
S1130C10A1E21A2EAA1BBB1BFD010DC0AA1FBB1FFC
S1130C20EE1FFF1FA217B307E407F50720F0A21B6E
S1130C30B30BE40BF50B661F771F881F991F1A94DB
S1130C4069F760957095809590959B01AC01BD0105
S1130C50CF010895A29FB001B39FC001A39F700D5F
S1130C60811D1124911DB29F700D811D1124911DB0
S1090C700895F894FFCF83
S1130C760100000001000100010001000100010063
S1130C8601020304050607080937383941343536A5
S1130C9642313233434530462B4375616E746F736C
S1130CA62043756164726F733F004573636F6E64AE
S1130CB66572652000637561647269746F732E00D2
S1130CC6547520646562657320627573636172008E
S1130CD6322066696C61732028312C322900313048
S1130CE620636F6C732028302D3929005072657388
S1130CF6696F6E61202B007061726120636F6E7480
S1130D06696E756172005472617461206465006D68
S1130D16656D6F72697A61722E2E2E004375616459
S1130D267269746F20007469656E65732000696E5C
S1130D3674656E746F732E004163696572746F0017
S1130D46526570657469646F0046756572612064E6
S1130D56652072616E676F004572726F7200496E2C
S1130D6674656E746F200047414E4153544521000B
S10F0D765045524449535445203A28008B
S9030000FC
