:100000000C942A000C9422020C9447000C94470094
:100010000C9447000C9447000C9447000C94470044
:100020000C9447000C9447000C9447000C94470034
:100030000C9447000C9447000C9487010C944700E3
:100040000C9447000C9447000C9447000C944B020E
:100050000C94470011241FBECFE5D4E0DEBFCDBF16
:1000600010E0A0E6B0E0EEEDFAE002C005900D92DF
:10007000AC37B107D9F720E0ACE7B0E001C01D9282
:10008000A638B207E1F70E9420010C946D050C948C
:10009000000085B3806485BB00C085B38F7B85BBC2
:1000A0000895CF93DF93D82F662321F085B3806125
:1000B00085BB03C085B38F7E85BB85B38F7D85BB34
:1000C00084B38F6084BBC5B3C07F8D2F82958F7042
:1000D0008C2B85BB0E944900DF70DC2BD5BB0E94B6
:1000E0004900CF60C5BBDF91CF910895882321F0EF
:1000F00085B3806185BB03C085B38F7E85BB85B327
:10010000806285BB84B3807F84BB85B3806485BBFC
:1001100000C093B39295907F85B38F7B85BB00C061
:1001200085B3806485BB00C083B38F7025B32F7BFC
:1001300025BB892B089580E00E9476008823DCF39C
:1001400084E090E00197F1F780E00E947600089546
:10015000CF93C82F0E949B0060E08C2F0E9451001B
:10016000CF910895611104C080580E94A80008959D
:1001700080540E94A800089581E00E94A80008957C
:10018000CF93C82F0E949B00CA3049F4803410F4EA
:1001900080E401C080E080580E94A80004C061E0B3
:1001A0008C2F0E945100CF910895CF93DF93FC01D3
:1001B00003C00E94C000FE01EF01219680818111E1
:1001C000F8CFDF91CF9108951F93CF93DF93182F2E
:1001D00084B38F6784BB80E09DE70197F1F785B317
:1001E000826085BB85B3816085BB0E94490080E049
:1001F00097E20197F1F70E944900C0E8D0E0CE01F4
:100200000197F1F70E944900CE010197F1F785B3FC
:100210008E7F85BB0E9449002197F1F788E20E94FA
:10022000A80088E00E94A8000E94BC0086E00E940E
:10023000A800812F0E94A800DF91CF911F910895FF
:1002400078948CE00E94E4000E94BC008EE986B99C
:1002500087B1806487B987B187B98BE083BF12BE4D
:1002600082E089BF9CE79CBF85BF80EE8ABF80E4A7
:100270008BBF8FEF82BB60E080E00E94B200809174
:10028000820090918300CAE0D0E0BE010E94450543
:1002900080E3860F0E94C0008091820090918300CD
:1002A000BE010E944505805D0E94C0008AE30E9455
:1002B000C0008091800090918100BE010E944505A0
:1002C00080E3860F0E94C0008091800090918100A1
:1002D000BE010E944505805D0E94C0008AE30E9425
:1002E000C00080917E0090917F00BE010E94450574
:1002F00080E3860F0E94C00080917E0090917F0075
:10030000BE010E944505805D0E94C000FFCF1F9284
:100310000F920FB60F921124CF92DF92EF92FF92BD
:100320001F932F933F934F935F936F937F938F937D
:100330009F93AF93BF93CF93DF93EF93FF9361E0CE
:1003400080E00E94B20080E690E00E94D50061E06B
:1003500080E00E94B20081E790E00E94D50064B185
:1003600075B180E090E00E94260420E030E04CE887
:1003700052E40E94D80420E030EC4FE754E40E949D
:100380007E0320E030E040EA51E40E940C036B0160
:100390007C0120E030E0A9010E94790388233CF42D
:1003A0008DE20E94C000F7FAF094F7F8F094C701CC
:1003B000B6010E94F003CAE0D0E0CB01BE010E946A
:1003C0004505182F80E3860F0E94C00080E3810F4F
:1003D0000E94C0008EE20E94C00020E030E040E2B7
:1003E00051E4C701B6010E94D8040E94F003CB017A
:1003F000BE010E944505805D0E94C00088E790E034
:100400000E94D50080917E0090917F0090937D00A6
:1004100080937C00FF91EF91DF91CF91BF91AF91DD
:100420009F918F917F916F915F914F913F912F910C
:100430001F91FF90EF90DF90CF900F900FBE0F9025
:100440001F9018951F920F920FB60F9211242F93A1
:100450003F934F935F936F937F938F939F93AF934C
:10046000BF93EF93FF9386B1806486B961E080E02B
:100470000E94B200FF91EF91BF91AF919F918F9138
:100480007F916F915F914F913F912F910F900FBE90
:100490000F901F9018951F920F920FB60F92112474
:1004A0002F933F934F935F936F937F938F939F937C
:1004B000AF93BF93CF93DF93EF93FF93809184002B
:1004C0009091850001969093850080938400883EEA
:1004D000934009F08EC080917E0090917F0001963C
:1004E00090937F0080937E00CC9769F410927F00F8
:1004F00010927E00809180009091810001969093EF
:100500008100809380008091800090918100CC9741
:1005100069F4109281001092800080918200909185
:1005200083000196909383008093820060E080E0D6
:100530000E94B2008091820090918300CAE0D0E0D6
:10054000BE010E94450580E3860F0E94C000809195
:10055000820090918300BE010E944505805D0E944B
:10056000C0008AE30E94C0008091800090918100C9
:10057000BE010E94450580E3860F0E94C000809165
:10058000800090918100BE010E944505805D0E941F
:10059000C0008AE30E94C00080917E0090917F009D
:1005A000BE010E94450580E3860F0E94C000809135
:1005B0007E0090917F00BE010E944505805D0E94F3
:1005C000C000109285001092840080917E0090916E
:1005D0007F00059720917C0030917D008217930762
:1005E00041F461E080E00E94B20080E690E00E9469
:1005F000D500FF91EF91DF91CF91BF91AF919F9186
:100600008F917F916F915F914F913F912F910F90BB
:100610000FBE0F901F9018955058BB27AA270E9415
:1006200024030C949E040E94900438F00E949704C6
:1006300020F039F49F3F19F426F40C948D040EF445
:10064000E095E7FB0C948704E92F0E94AF0458F370
:10065000BA17620773078407950720F079F4A6F5A7
:100660000C94D1040EF4E0950B2EBA2FA02D0B01A3
:10067000B90190010C01CA01A0011124FF27591BE7
:1006800099F0593F50F4503E68F11A16F040A22FED
:10069000232F342F4427585FF3CF4695379527955E
:1006A000A795F0405395C9F77EF41F16BA0B620B5D
:1006B000730B840BBAF09150A1F0FF0FBB1F661FA4
:1006C000771F881FC2F70EC0BA0F621F731F841FE7
:1006D00048F4879577956795B795F7959E3F08F00D
:1006E000B0CF9395880F08F09927EE0F97958795CF
:1006F00008950E94630408F481E008950E94920323
:100700000C949E040E94970458F00E94900440F0BC
:1007100029F45F3F29F00C94870451110C94D20402
:100720000C948D040E94AF0468F39923B1F3552310
:1007300091F3951B550BBB27AA27621773078407F4
:1007400038F09F5F5F4F220F331F441FAA1FA9F38A
:1007500035D00E2E3AF0E0E832D091505040E69578
:10076000001CCAF72BD0FE2F29D0660F771F881FD9
:10077000BB1F261737074807AB07B0E809F0BB0BCC
:10078000802DBF01FF2793585F4F3AF09E3F5105E0
:1007900078F00C9487040C94D2045F3FE4F3983E05
:1007A000D4F3869577956795B795F7959F5FC9F7C9
:1007B000880F911D9695879597F90895E1E0660F4A
:1007C000771F881FBB1F621773078407BA0720F0C3
:1007D000621B730B840BBA0BEE1F88F7E09508952C
:1007E0000E94F7036894B1110C94D20408950E94FA
:1007F000B70488F09F5798F0B92F9927B751B0F0F8
:10080000E1F0660F771F881F991F1AF0BA95C9F794
:1008100014C0B13091F00E94D104B1E008950C945D
:10082000D104672F782F8827B85F39F0B93FCCF310
:10083000869577956795B395D9F73EF49095809511
:10084000709561957F4F8F4F9F4F0895E89409C031
:1008500097FB3EF490958095709561957F4F8F4FF3
:100860009F4F9923A9F0F92F96E9BB279395F69509
:10087000879577956795B795F111F8CFFAF4BB0F87
:1008800011F460FF1BC06F5F7F4F8F4F9F4F16C0EB
:10089000882311F096E911C0772321F09EE8872F75
:1008A000762F05C0662371F096E8862F70E060E031
:1008B0002AF09A95660F771F881FDAF7880F9695AA
:1008C000879597F90895990F0008550FAA0BE0E84E
:1008D000FEEF16161706E807F907C0F01216130602
:1008E000E407F50798F0621B730B840B950B39F442
:1008F0000A2661F0232B242B252B21F408950A26A8
:1009000009F4A140A6958FEF811D811D089597F9E7
:100910009F6780E870E060E008959FEF80EC0895A5
:1009200000240A94161617061806090608950024CE
:100930000A9412161306140605060895092E039448
:10094000000C11F4882352F0BB0F40F4BF2B11F4BC
:1009500060FF04C06F5F7F4F8F4F9F4F089557FD1B
:100960009058440F551F59F05F3F71F04795880F1D
:1009700097FB991F61F09F3F79F0879508951216B4
:1009800013061406551FF2CF4695F1DF08C0161660
:1009900017061806991FF1CF869571056105089411
:1009A0000895E894BB2766277727CB0197F9089528
:1009B0000E94EB040C949E040E94900438F00E9464
:1009C000970420F0952311F00C9487040C948D0467
:1009D00011240C94D2040E94AF0470F3959FC1F3CC
:1009E000950F50E0551F629FF001729FBB27F00DDD
:1009F000B11D639FAA27F00DB11DAA1F649F662732
:100A0000B00DA11D661F829F2227B00DA11D621F80
:100A1000739FB00DA11D621F839FA00D611D221F3A
:100A2000749F3327A00D611D231F849F600D211D1E
:100A3000822F762F6A2F11249F5750409AF0F1F0A1
:100A400088234AF0EE0FFF1FBB1F661F771F881F0A
:100A500091505040A9F79E3F510580F00C948704B7
:100A60000C94D2045F3FE4F3983ED4F386957795D7
:100A70006795B795F795E7959F5FC1F7FE2B880FB0
:100A8000911D9695879597F9089597FB072E16F473
:100A9000009407D077FD09D00E94590507FC05D0C6
:100AA0003EF4909581959F4F0895709561957F4F85
:100AB0000895AA1BBB1B51E107C0AA1FBB1FA617A5
:100AC000B70710F0A61BB70B881F991F5A95A9F7F7
:0E0AD00080959095BC01CD010895F894FFCF5C
:100ADE002020202020202020202020202020202008
:0C0AEE000054656D702E200020430000B5
:00000001FF
