S01100007072616374696361352E7372656397
S11300000C942A000C9447000C9447000C9447006D
S11300100C9447000C9447000C9447000C94470040
S11300200C9447000C9447000C9447000C94470030
S11300300C9447000C9447000C9447000C94470020
S11300400C9447000C9447000C9447000C949D01B9
S11300500C94470011241FBECFE5D4E0DEBFCDBF12
S113006010E0A0E6B0E0E4E7F3E002C005900D92F2
S1130070A236B107D9F720E0A2E6B0E001C01D9294
S1130080A636B207E1F70E9425010C94B8010C943E
S1130090000085B3806485BB00C085B38F7B85BBBE
S11300A00895CF93DF93D82F662321F085B3806121
S11300B085BB03C085B38F7E85BB85B38F7D85BB30
S11300C084B38F6084BBC5B3C07F8D2F82958F703E
S11300D08C2B85BB0E944900DF70DC2BD5BB0E94B2
S11300E04900CF60C5BBDF91CF910895882321F0EB
S11300F085B3806185BB03C085B38F7E85BB85B323
S1130100806285BB84B3807F84BB85B3806485BBF8
S113011000C093B39295907F85B38F7B85BB00C05D
S113012085B3806485BB00C083B38F7025B32F7BF8
S113013025BB892B089580E00E9476008823DCF398
S113014084E090E00197F1F780E00E947600089542
S1130150CF93C82F0E949B0060E08C2F0E94510017
S1130160CF910895611104C080580E94A800089599
S113017080540E94A800089581E00E94A800089578
S1130180CF93C82F0E949B00CA3049F4803410F4E6
S113019080E401C080E080580E94A80004C061E0AF
S11301A08C2F0E945100CF9108951F93CF93DF931A
S11301B0182F84B38F6784BB80E09DE70197F1F724
S11301C085B3826085BB85B3816085BB0E9449008D
S11301D080E097E20197F1F70E944900C0E8D0E07F
S11301E0CE010197F1F70E944900CE010197F1F782
S11301F085B38E7F85BB0E9449002197F1F788E281
S11302000E94A80088E00E94A8000E94BC0086E02A
S11302100E94A800812F0E94A800DF91CF911F9116
S113022008951ABA8FEF8BBB80EF84BB8CE00E94D9
S1130230D50084E68093620012BE82E089BF86E224
S11302408CBF8CE083BF789408950E941101C899F3
S1130250FECF83ED90E30197F1F700C00000809199
S11302606400811118C081E4809360008091630070
S113027060E00E94B200809160000E94C000809102
S113028064008F5F8093640084E680936200109220
S1130290650012BE49C080916500882351F18091A8
S11302A06400803149F40E94BC00109264001092F2
S11302B063001092600016C081E480936000809116
S11302C063008F5F809363008091630060E00E940D
S11302D0B200809160000E94C000809164008F5F32
S11302E08093640084E6809362001092650012BEDD
S11302F01BC0809160008F5F8093600080916000DC
S11303008B3518F081E4809360008091630060E095
S11303100E94B200809160000E94C00084E6809335
S113032062001092650012BEC89BFECF83ED90E37D
S11303300197F1F700C000008ACF1F920F920FB609
S11303400F9211248F9380916200815080936200F8
S113035080916200811106C081E08093650084E68B
S1130360809362008F910F900FBE0F901F9018958D
S1070370F894FFCF2B
S1050374410042
S9030000FC
