S01100007072616374696361362E7372656396
S11300000C942A000C9447000C9447000C9447006D
S11300100C9447000C9447000C9447000C94470040
S11300200C9447000C9447000C9447000C94470030
S11300300C9447000C9447000C9447000C94470020
S11300400C9447000C9447000C9447000C94470010
S11300500C94470011241FBECFE5D4E0DEBFCDBF12
S113006010E0A0E6B0E0E4E7F4E002C005900D92F1
S1130070A037B107D9F720E0A0E7B0E001C01D9296
S1130080A437B207E1F70E9490010C9438020C9453
S1130090000085B3806485BB00C085B38F7B85BBBE
S11300A00895CF93DF93D82F662321F085B3806121
S11300B085BB03C085B38F7E85BB85B38F7D85BB30
S11300C084B38F6084BBC5B3C07F8D2F82958F703E
S11300D08C2B85BB0E944900DF70DC2BD5BB0E94B2
S11300E04900CF60C5BBDF91CF910895882321F0EB
S11300F085B3806185BB03C085B38F7E85BB85B323
S1130100806285BB84B3807F84BB85B3806485BBF8
S113011000C093B39295907F85B38F7B85BB00C05D
S113012085B3806485BB00C083B38F7025B32F7BF8
S113013025BB892B089580E00E9476008823DCF398
S113014084E090E00197F1F780E00E947600089542
S1130150CF93C82F0E949B0060E08C2F0E94510017
S1130160CF910895611104C080580E94A800089599
S113017080540E94A800089581E00E94A800089578
S1130180CF93C82F0E949B00CA3049F4803410F4E6
S113019080E401C080E080580E94A80004C061E0AF
S11301A08C2F0E945100CF9108951F93CF93DF931A
S11301B0182F84B38F6784BB80E09DE70197F1F724
S11301C085B3826085BB85B3816085BB0E9449008D
S11301D080E097E20197F1F70E944900C0E8D0E07F
S11301E0CE010197F1F70E944900CE010197F1F782
S11301F085B38E7F85BB0E9449002197F1F788E281
S11302000E94A80088E00E94A8000E94BC0086E02A
S11302100E94A800812F0E94A800DF91CF911F9116
S113022008951092730020E048C0622F70E047E008
S113023050E0461B570B81E090E002C0880F991FE5
S11302404A95E2F7809582BB80990CC081E0809347
S11302507300660F771F660F771FFB01E05AFF4F8D
S11302608381089581990CC082E080937300660FA6
S1130270771F660F771FFB01E05AFF4F82810895B5
S113028082990CC084E080937300660F771F660F19
S1130290771FFB01E05AFF4F8181089583990CC0B9
S11302A088E080937300660F771F660F771FFB014A
S11302B0E05AFF4F808108952F5F243008F4B5CFB2
S11302C080E008958FE493EC0197F1F700C00000FB
S11302D080B390E09C01209530958091730090E06C
S11302E082239323892BA1F78FE493EC0197F1F7F1
S11302F000C000000895CF938FEF8ABB1BBAC0EFF4
S1130300C4BB8CE00E94D500C1BB87B3886087BBA7
S113031087B3806887BB83B78C6683BFCF9108950A
S11303200E947B011CBE80917100823008F080C065
S11303300E94110180937200882301F180538A3056
S1130340D0F48091710091E0980F9093710060E077
S11303500E94B200809172000E94C00080917000DF
S1130360880F982F990F990F980F80917200890F19
S11303708053809370000E946201D5CF0E94620175
S1130380D2CF0CBFD0917000E12CF12C2AC02FE306
S11303908DE093E0215080409040E1F700C00000E0
S11303A060E080E00E94B200CDECDC9FC12D1124FE
S11303B0C695C695C69580E38C0F0E94C00060E088
S11303C081E00E94B200CC0F8C2F880F880FC80FD9
S11303D08D2F8C1B805D0E94C000D1502FEFE21A3C
S11303E0F20AC09170008C2F90E0E816F9067CF2B6
S11303F060E080E00E94B200DDECCD9FD12D11249D
S1130400D695D695D69580E38D0F0E94C00060E006
S113041081E00E94B200DD0F8D2F880F880FD80F66
S11304208C2F8D1B805D0E94C0000F5F1F4F02C088
S113043008E010E0063211050CF4A3CF109271000D
S11304400E94BC008FEF8BBB88B3806888BB8FEFA2
S113045099E628E1815090402040E1F700C0000077
S11304601CBE1BBA88B38F7788BB109270005BCF19
S1070470F894FFCF2A
S113047431323341343536423738394345304644D2
S9030000FC
