:100000000C942A000C9447000C9447000C94470071
:100010000C9447000C9447000C9447000C94470044
:100020000C9447000C9447000C9447000C94470034
:100030000C9447000C9447000C9447000C94470024
:100040000C9447000C9447000C9447000C94470014
:100050000C94470011241FBECFE5D4E0DEBFCDBF16
:1000600010E0A0E6B0E0E0E5FAE002C005900D92F5
:10007000A838B107D9F720E0A8E8B0E001C01D9288
:10008000A938B207E1F70E9491020C9426050C945E
:10009000000085B3806485BB00C085B38F7B85BBC2
:1000A0000895CF93DF93D82F662321F085B3806125
:1000B00085BB03C085B38F7E85BB85B38F7D85BB34
:1000C00084B38F6084BBC5B3C07F8D2F82958F7042
:1000D0008C2B85BB0E944900DF70DC2BD5BB0E94B6
:1000E0004900CF60C5BBDF91CF910895882321F0EF
:1000F00085B3806185BB03C085B38F7E85BB85B327
:10010000806285BB84B3807F84BB85B3806485BBFC
:1001100000C093B39295907F85B38F7B85BB00C061
:1001200085B3806485BB00C083B38F7025B32F7BFC
:1001300025BB892B089580E00E9476008823DCF39C
:1001400084E090E00197F1F780E00E947600089546
:10015000CF93C82F0E949B0060E08C2F0E9451001B
:10016000CF910895611104C080580E94A80008959D
:1001700080540E94A800089581E00E94A80008957C
:10018000CF93C82F0E949B00CA3049F4803410F4EA
:1001900080E401C080E080580E94A80004C061E0B3
:1001A0008C2F0E945100CF910895CF93DF93FC01D3
:1001B00003C00E94C000FE01EF01219680818111E1
:1001C000F8CFDF91CF9108951F93CF93DF93182F2E
:1001D00084B38F6784BB80E09DE70197F1F785B317
:1001E000826085BB85B3816085BB0E94490080E049
:1001F00097E20197F1F70E944900C0E8D0E0CE01F4
:100200000197F1F70E944900CE010197F1F785B3FC
:100210008E7F85BB0E9449002197F1F788E20E94FA
:10022000A80088E00E94A8000E94BC0086E00E940E
:10023000A800812F0E94A800DF91CF911F910895FF
:1002400087B3806A87BB81E58DB98EB18E7F8EB909
:1002500087B3806187BB88B3806188BB089540E025
:1002600058C0242F30E067E070E0621B730B81E020
:1002700090E002C0880F991F6A95E2F780958BBBCA
:10028000C89910C0F901EE0FFF1FEE0FFF1FE05AD3
:10029000FF4F8381803330F08A3320F491E09093D4
:1002A00088000895C99910C0F901EE0FFF1FEE0FE5
:1002B000FF1FE05AFF4F8281803330F08A3320F4F1
:1002C00092E0909388000895CA9910C0F901EE0F4A
:1002D000FF1FEE0FFF1FE05AFF4F8181803330F088
:1002E0008A3320F494E0909388000895CB9910C04D
:1002F000220F331F220F331FF901E05AFF4F808175
:10030000803330F08A3320F498E090938800089589
:100310004F5F443008F4A5CFA2CF40E058C0242F4F
:1003200030E067E070E0621B730B81E090E002C098
:10033000880F991F6A95E2F780958BBBC89910C00A
:10034000F901EE0FFF1FEE0FFF1FE05AFF4F8381F1
:10035000803330F0853320F491E090938800089545
:10036000C99910C0F901EE0FFF1FEE0FFF1FE05AF1
:10037000FF4F8281803330F0853320F492E09093F8
:1003800088000895CA9910C0F901EE0FFF1FEE0F03
:10039000FF1FE05AFF4F8181803330F0853320F416
:1003A00094E0909388000895CB9910C0220F331FDA
:1003B000220F331FF901E05AFF4F8081803330F064
:1003C000853320F498E09093880008954F5F44307F
:1003D00008F4A5CFA2CF40E058C0242F30E067E05A
:1003E00070E0621B730B81E090E002C0880F991FE0
:1003F0006A95E2F780958BBBC89910C0F901EE0FA2
:10040000FF1FEE0FFF1FE05AFF4F8381843430F04F
:10041000853420F491E0909388000895C99910C024
:10042000F901EE0FFF1FEE0FFF1FE05AFF4F828111
:10043000843430F0853420F492E09093880008955D
:10044000CA9910C0F901EE0FFF1FEE0FFF1FE05A0F
:10045000FF4F8181843430F0853420F494E0909310
:1004600088000895CB9910C0220F331F220F331F2D
:10047000F901E05AFF4F8081843430F0853420F454
:1004800098E09093880008954F5F443008F4A5CF1A
:10049000A2CF2FE788E391E0215080409040E1F720
:1004A00000C0000089B390E09C01209530958091B8
:1004B000880090E082239323892BA1F72FE788E31C
:1004C00091E0215080409040E1F700C00000089585
:1004D0009C01002436952795079436952795079417
:1004E000322F202D98B39F7E98BB8FE19EE4019719
:1004F000F1F700C000003FB9779BFECF8FE19EE48B
:100500000197F1F700C000002FB9779BFECF88B3A9
:10051000806188BB8FE19EE40197F1F700C0000085
:1005200008950E9420018CE00E94E40080EF8ABBC5
:100530000E94BC0080E790E00E94D5000E948D01DF
:10054000182F61E080E00E94B200812F0E94C0005D
:100550008EE20E94C0000E9449020E942F01D82F03
:100560000E94C0000E9449020E942F01C82F0E94D1
:10057000C0000E9449020E94EB010E94BC0080E87A
:1005800090E00E94D500612F70E060537109072E42
:10059000000C880B990B0E942D0420E030E048EC01
:1005A00052E40E94B9046B017C016D2F70E060532E
:1005B0007109072E000C880B990B0E942D0420E076
:1005C00030E040E251E40E94B9049B01AC01C70154
:1005D000B6010E9417036B017C016C2F70E0605321
:1005E0007109072E000C880B990B0E942D04A7019E
:1005F00096010E94170320E030E040EA50E40E9498
:10060000830323E333E343E250E40E94B9040E94EE
:10061000F503CB010E9468022FEF83ED90E3215098
:1006200080409040E1F700C0000082CF5058BB27C7
:10063000AA270E942E030C947F040E94710438F0B4
:100640000E94780420F039F49F3F19F426F40C94AA
:100650006E040EF4E095E7FB0C946804E92F0E9409
:10066000900458F3BA17620773078407950720F0C0
:1006700079F4A6F50C94B2040EF4E0950B2EBA2F83
:10068000A02D0B01B90190010C01CA01A001112498
:10069000FF27591B99F0593F50F4503E68F11A1644
:1006A000F040A22F232F342F4427585FF3CF4695D5
:1006B00037952795A795F0405395C9F77EF41F16F7
:1006C000BA0B620B730B840BBAF09150A1F0FF0FC1
:1006D000BB1F661F771F881FC2F70EC0BA0F621FAD
:1006E000731F841F48F4879577956795B795F7959D
:1006F0009E3F08F0B0CF9395880F08F09927EE0F32
:100700009795879508950E9497030C947F040E9403
:10071000780458F00E94710440F029F45F3F29F0FA
:100720000C94680451110C94B3040C946E040E9450
:10073000900468F39923B1F3552391F3951B550B5E
:10074000BB27AA2762177307840738F09F5F5F4FA4
:10075000220F331F441FAA1FA9F335D00E2E3AF0E3
:10076000E0E832D091505040E695001CCAF72BD0FB
:10077000FE2F29D0660F771F881FBB1F261737074C
:100780004807AB07B0E809F0BB0B802DBF01FF277E
:1007900093585F4F3AF09E3F510578F00C946804EF
:1007A0000C94B3045F3FE4F3983ED4F386957795B9
:1007B0006795B795F7959F5FC9F7880F911D969537
:1007C000879597F90895E1E0660F771F881FBB1F93
:1007D000621773078407BA0720F0621B730B840B40
:1007E000BA0BEE1F88F7E09508950E94FC03689409
:1007F000B1110C94B30408950E94980488F09F5797
:1008000098F0B92F9927B751B0F0E1F0660F771F34
:10081000881F991F1AF0BA95C9F714C0B13091F02A
:100820000E94B204B1E008950C94B204672F782FAF
:100830008827B85F39F0B93FCCF3869577956795EF
:10084000B395D9F73EF490958095709561957F4F5B
:100850008F4F9F4F0895E89409C097FB3EF4909501
:100860008095709561957F4F8F4F9F4F9923A9F089
:10087000F92F96E9BB279395F69587957795679518
:10088000B795F111F8CFFAF4BB0F11F460FF1BC05C
:100890006F5F7F4F8F4F9F4F16C0882311F096E9EF
:1008A00011C0772321F09EE8872F762F05C066239D
:1008B00071F096E8862F70E060E02AF09A95660F56
:1008C000771F881FDAF7880F9695879597F908950F
:1008D00097F99F6780E870E060E008959FEF80ECF3
:1008E000089500240A941616170618060906089596
:1008F00000240A9412161306140605060895092EFC
:100900000394000C11F4882352F0BB0F40F4BF2B6A
:1009100011F460FF04C06F5F7F4F8F4F9F4F0895AA
:1009200057FD9058440F551F59F05F3F71F04795A0
:10093000880F97FB991F61F09F3F79F08795089585
:10094000121613061406551FF2CF4695F1DF08C0A4
:10095000161617061806991FF1CF869571056105C1
:1009600008940895E894BB2766277727CB0197F969
:1009700008950E94CC040C947F040E94710438F006
:100980000E94780420F0952311F00C9468040C94D4
:100990006E0411240C94B3040E94900470F3959F8C
:1009A000C1F3950F50E0551F629FF001729FBB2766
:1009B000F00DB11D639FAA27F00DB11DAA1F649F02
:1009C0006627B00DA11D661F829F2227B00DA11DB5
:1009D000621F739FB00DA11D621F839FA00D611D3B
:1009E000221F749F3327A00D611D231F849F600D5C
:1009F000211D822F762F6A2F11249F5750409AF085
:100A0000F1F088234AF0EE0FFF1FBB1F661F771F10
:100A1000881F91505040A9F79E3F510580F00C94DB
:100A200068040C94B3045F3FE4F3983ED4F38695D6
:100A300077956795B795F795E7959F5FC1F7FE2B7B
:100A4000880F911D9695879597F90895F894FFCF93
:100A500037383941343536423132334345304644F4
:100A6000496E677265736120766F6C74616A6500A8
:080A70004C6973746F21000052
:00000001FF
