S0120000707261637469636131302E737265636A
S11300000C942A000C9434000C9434000C943400A6
S11300100C9434000C9434000C9434000C9434008C
S11300200C9434000C9434000C9434000C9434007C
S11300300C9434000C9434000C9434000C9434006C
S11300400C9434000C9434000C9434000C9434005C
S11300500C94340011241FBECFE5D4E0DEBFCDBF25
S11300600E94B1010C943F020C94000085B380649B
S113007085BB00C085B38F7B85BB0895CF93DF9389
S1130080D82F662321F085B3806185BB03C085B377
S11300908F7E85BB85B38F7D85BB84B38F6084BB26
S11300A0C5B3C07F8D2F82958F708C2B85BB0E942A
S11300B03600DF70DC2BD5BB0E943600CF60C5BB99
S11300C0DF91CF910895882321F085B3806185BBAA
S11300D003C085B38F7E85BB85B3806285BB84B343
S11300E0807F84BB85B3806485BB00C093B3929545
S11300F0907F85B38F7B85BB00C085B3806485BB4F
S113010000C083B38F7025B32F7B25BB892B089543
S113011080E00E9463008823DCF382E090E0019792
S1130120F1F780E00E9463000895CF93C82F0E94E6
S1130130880060E08C2F0E943E00CF9108956111E9
S113014004C080580E949500089580540E94950030
S1130150089581E00E9495000895CF93C82F0E94CE
S11301608800CA3049F4803410F480E401C080E08F
S113017080580E94950004C061E08C2F0E943E00CC
S1130180CF9108951F93CF93DF93182F84B38F6774
S113019084BB80E89EE30197F1F785B3826085BB59
S11301A085B3816085BB0E94360080E893E10197A6
S11301B0F1F70E943600C0E4D0E0CE010197F1F7D8
S11301C00E943600CE010197F1F785B38E7F85BB7F
S11301D00E9436002197F1F788E20E94950088E09A
S11301E00E9495000E94A90086E00E949500812F3C
S11301F00E949500DF91CF911F91089597B1987F48
S11302008770892B87B986B1806486B93699FECF09
S113021084B195B108951F93CF93DF93182FD62FF0
S1130220C42F60E080E00E949F0010FF04C08FEFA5
S11302300E94AD0003C081E80E94AD0060E081E04F
S11302400E949F0011FF04C08FEF0E94AD0003C005
S113025081E80E94AD0060E082E00E949F0012FFEE
S113026004C08FEF0E94AD0003C081E80E94AD007E
S113027060E083E00E949F0013FF04C08FEF0E94A0
S1130280AD0003C081E80E94AD0060E08CE00E94F4
S11302909F00D0FF04C08FEF0E94AD0003C081E82F
S11302A00E94AD0060E08DE00E949F00D1FF04C079
S11302B08FEF0E94AD0003C081E80E94AD0060E0B2
S11302C08EE00E949F00D2FF04C08FEF0E94AD0019
S11302D003C081E80E94AD0060E08FE00E949F00AF
S11302E0D3FF04C08FEF0E94AD0003C081E80E94D9
S11302F0AD0061E080E00E949F00C0FF04C08FEF6A
S11303000E94AD0003C081E80E94AD0061E081E07D
S11303100E949F00C1FF04C08FEF0E94AD0003C084
S113032081E80E94AD0061E082E00E949F00C2FF6C
S113033004C08FEF0E94AD0003C081E80E94AD00AD
S113034061E083E00E949F00C3FF04C08FEF0E941E
S1130350AD0003C081E80E94AD00DF91CF911F91F1
S113036008951ABA85E886B987E487B98CE00E94B3
S1130370C2000E94A90040E050E060E070E080E02C
S113038090E00E940B01F12CC0E080E00E94FE008E
S11303908D3C910514F400E001C001E08A3921E0AC
S11303A092070CF00E5F873622E092070CF00C5F88
S11303B0843393400CF0085FD0E010E06F2D70E0C0
S11303C0AE01C8010E940B018FE798E321E0815040
S11303D090402040E1F700C0000081E00E94FE0050
S11303E08D3C910514F4F12C02C0FF24F3948A3956
S11303F021E0920714F0F394F394873622E09207F5
S113040014F024E0F20E8433934014F088E0F80EE4
S11304109FE728E381E0915020408040E1F700C04D
S11304200000CF2CD12CAE01B601C8010E940B01F3
S113043082E00E94FE008D3C910514F4C0E001C0EE
S1130440C1E08A3921E092070CF0CE5F873622E0C2
S113045092070CF0CC5F843393400CF0C85F4C2FB0
S113046050E0B601C8010E940B018FE798E321E038
S1130470815090402040E1F700C0000086CFF894FE
S1050480FFCFA8
S9030000FC
